:020000040800F2
:10000000304400201D020008EF380008DF330008EC
:10001000ED380008F91000087146000800000000E3
:10002000000000000000000000000000C13F0008C8
:100030001113000800000000C13E00082D40000818
:1000400037020008370200083702000837020008AC
:10005000370200083702000837020008370200089C
:10006000370200083702000837020008370200088C
:10007000370200083702000837020008370200087C
:10008000370200083702000837020008370200086C
:10009000370200083702000837020008370200085C
:1000A000370200083702000837020008370200084C
:1000B000B94000083702000837020008370200087C
:1000C000370200083702000837020008370200082C
:1000D0003702000889450008370200083702000887
:1000E00037020008370200083702000800F002F863
:1000F00000F06AF80AA090E8000C82448344AAF158
:100100000107DA4501D100F05FF8AFF2090EBAE855
:100110000F0013F0010F18BFFB1A43F0010318473B
:100120003C9700005C9700000A444FF0000C10F868
:10013000013B13F0070408BF10F8014B1D1108BF65
:1001400010F8015B641E05D010F8016B641E01F805
:10015000016BF9D113F0080F1EBF10F8014BAD1C55
:100160000C1B09D16D1E58BF01F801CBFAD505E073
:1001700014F8016B01F8016B6D1EF9D59142D6D3CD
:10018000704700000023002400250026103A28BFF5
:1001900078C1FBD8520728BF30C148BF0B607047F9
:1001A000642900F09780002070471FB500F043FAE3
:1001B00000F0ECFE04000020002107F0B3F8401C22
:1001C00060601FBD10B510BD00F0A4FE1146FFF722
:1001D000ECFF04F0CFFC00F0CBFE03B4FFF7F2FF1E
:1001E00003BC00F019FF00000B49D1F800C04A68B9
:1001F0005CF8043B1068184442F8040B8C4528BF97
:10020000A1F1DC0C8A4228BFA1F1DC02C1F800C0D8
:100210004A6020F000407047983D00200948804720
:1002200009480047FEE7FEE7FEE7FEE7FEE7FEE7D8
:10023000FEE7FEE7FEE7FEE704480549054A064BF0
:1002400070470000B7400008ED000008303E002075
:100250003044002030400020304000200FB41CB556
:10026000074B06AA7B4469460090059800F0D5FB31
:100270000020694600F0E4FB1CBC5DF814FB0000A4
:10028000D907000070B5044685690068C10601D52C
:10029000302600E02026C00707D070BDD4E9012138
:1002A00030469047206A401C20626D1EF6D570BD16
:1002B00070B5044685690078C00707D170BDD4E9E0
:1002C000012120209047206A401C20626D1EF6D537
:1002D00070BD00002DE9F041064600241068752924
:1002E000314616A510D0AFF30080002802DA404254
:1002F00013A507E031688A0701D512A502E0490776
:1003000004D511A5012401E0AFF3008000210A22E9
:1003100006F1240709E0B0FBF2FCB0FBF2F302FBAC
:100320001C00303078541846491C0028F3D123466D
:100330002A463046BDE8F04100F011BB0000000045
:100340002D0000002B000000200000002DE9F05FD0
:10035000894604464FF0000ADFF824B1FB44C0F898
:1003600020A02046E168884700287DD0252806D0B7
:10037000D4E901219047206A401C2062F1E7002562
:100380005F462046E16888472028064607DB312E75
:1003900005D2B81910F8200C08B10543F1E7A807F9
:1003A00001D525F00405C4F81CA00027C4F818A046
:1003B0002A2E09D0304604F06CF938B304EB8708D4
:1003C000303EC8F8186019E059F8041B204604EBC9
:1003D00087029161E1688847012F064618D1E069DC
:1003E000002820DA25F020051DE0D8F8180000EBE1
:1003F000800006EB40003038C8F818002046E1685D
:100400008847064604F045F90028EED1012F0AD0AE
:100410002E2E08D12046E16888477F1C0646022F11
:1004200045F02005C4DBA069002803DA404245F00E
:100430000105A061E80701D025F01005A6B1A6F1DD
:100440004100192802D8203645F400654A46314655
:10045000204625604D46FFF7A3FE60B1012807D076
:10046000ED1D25F0070000E007E000F1080978E73E
:1004700005F1040975E730467AE7206ABDE8F09F88
:10048000DC9400000FB400B58DB010A90990009164
:100490000B904FF0FF300A9000200C9006487844F3
:1004A0000690064878446A4607900F9909A800F01C
:1004B000E1FA0DB05DF814FBF30500000B06000037
:1004C0002DE9FF5F1D464FF0FF3B91464FF00008BE
:1004D0005F46D5E90146A96901987F1C8847296ACA
:1004E000824688470028F6D1BAF1FF3F0CD0002E93
:1004F00024F4C06419DD600614D5BAF12B0F09D0BD
:10050000BAF12D0F0ED103E0584604B0BDE8F09FBC
:1005100044F48064A96901987F1C8847761E82464E
:10052000002E02DDBAF1300F03D0B9F1000F26D052
:1005300032E0A969761E01987F1C44F40074884754
:10054000002E824605DDBAF1780F06D0BAF1580FB9
:1005500003D0B9F1000F10D01EE0B9F1000F02D0A6
:10056000B9F1100F18D1A969761E01987F1C24F4E7
:10057000007488478246102002E0082000E00A202C
:10058000814609E0A96908FB0908761E01987F1CCD
:1005900044F4007488478246002E05DD49465046E3
:1005A00000F053FA0028EDDAE96901988847A005C0
:1005B00002D46FF00100A8E7E00725D1600613D54B
:1005C000600502D5C8F1000000E0404629680A1D18
:1005D0002A600968220501D5087015E0220701D5B7
:1005E000088011E008600FE02868011D296000689C
:1005F000210502D580F8008006E0210702D5A0F889
:10060000008001E0C0F8008038467EE70B4910B555
:10061000A1F17C020A4CC2E93712372106E000EB57
:10062000104342F82130074B00FB03400B1EA1F1A1
:100630000101F4DC10BD0120E8E70000383D002096
:10064000E119D666CD0D010030B505460B462A46A8
:1006500013F8014B12F8010B08B1A042F8D01CB1FD
:10066000002802D06D1CF1E7284630BD10B5431CB0
:1006700002E010F8011B71B18107FAD14FF001328D
:1006800002C88C1A8C4314EAC211F9D0C01A0A06A7
:1006900003D0C01E10BDC01A10BD0A0401D0801EB8
:1006A00010BD0902FCD0401E10BD10B5203AC0F0AC
:1006B0000B80B1E81850203AA0E81850B1E8185063
:1006C000A0E81850BFF4F5AF5FEA027C24BFB1E8A0
:1006D0001850A0E8185044BF18C918C0BDE8104011
:1006E0005FEA827C24BF51F8043B40F8043B08BF1A
:1006F0007047D20728BF31F8023B48BF11F8012BE1
:1007000028BF20F8023B48BF00F8012B70474FF08C
:1007100000020429C0F0128010F0030C00F01B80CE
:10072000CCF1040CBCF1020F18BF00F8012BA8BFDC
:1007300020F8022BA1EB0C0100F00DB85FEAC17CA0
:1007400024BF00F8012B00F8012B48BF00F8012B53
:1007500070474FF0000200B5134694469646203984
:1007600022BFA0E80C50A0E80C50B1F12001BFF46A
:10077000F7AF090728BFA0E80C5048BF0CC05DF8D0
:1007800004EB890028BF40F8042B08BF704748BF1E
:1007900020F8022B11F0804F18BF00F8012B704792
:1007A000014900F097B90000A03D002010B5036892
:1007B0001C1404EB21449BB289B2194494FBF2F35C
:1007C00002FB134394FBF2F401EB034393FBF2F1BE
:1007D00002FB113193FBF2F301E05B1E114400298F
:1007E000FBDB016003EB044010BDF0B504464FF0A5
:1007F000FF3585B00068049060680290A06803909F
:10080000E068019020690090666906F18040B0F1CF
:10081000004F7CD83C22002104A8FFF7C7FF3C22F0
:10082000014602A8FFF7C2FF1822014603A8FFF7FE
:10083000BDFF411E40F2B55201A8FFF7B7FF0C22E1
:10084000074668460021FFF7B1FF414B00EB8700E8
:10085000304400267B4411E0511A01910099491C53
:100860000229009102D00C2908D105E0810705D0AA
:100870000199491C019101E0401C00960099019AE0
:10088000595C9142E8DD0099012906D11C2A04D166
:10089000810702D00221CDE90016A0F146018B2983
:1008A0003CD2DDE90061002202E09F5C521C394429
:1008B000B242FADB012E02DD820700D0491E40F26F
:1008C000B55340F26D16C21700EB927292105A4364
:1008D00000F0030303FB062283070A4400D1521EE3
:1008E000039E02EB4203049F06EBC303029EC3EB8D
:1008F000031306EB8303174E33441E149BB2C6EB5F
:100900000616C3EB0313B60007EB830300E005E014
:1009100006EB134666F31F43360C02D0284605B09B
:10092000F0BD80C4029E40C4039E40C4019E761C5C
:1009300044F80C6B009E44E902600720521C92FBB5
:10094000F0F600FB162084E823001846E7E70000D5
:10095000F58F0000A039CEFD7047704770472DE934
:10096000F0470D4699469246044600F12408016876
:10097000880604D5E06921F01001216000E0012023
:10098000A84201DD471B00E00027A1697A1902EBAC
:100990000900081AA0612078C00602D42046FFF79B
:1009A00071FC002608E0D4E901211AF806009047FE
:1009B000206A401C761C20624E45F4DB2078C0067D
:1009C0000AD52046FFF75EFC06E0D4E9012130207D
:1009D0009047206A401C2062381EA7F10107F4DC12
:1009E00007E0D4E9012118F805009047206A401C6F
:1009F0002062281EA5F10105F3DC2046FFF758FC14
:100A00002078000602D50220BDE8F0870120FBE730
:100A100001694A1C02610878704700B58FB0CDE9C2
:100A200001310021059105497944CDE903101146B2
:100A30006846FFF78BFC0FB000BD0000E5FFFFFF2D
:100A40000A6802F8010B0A6070473A2800D2303871
:100A500020F02002412A01D3A2F13700884201D3BD
:100A60004FF0FF30704700000268114413780160B6
:100A700018467047D1600549794451610449794469
:100A8000116200211161114600F08AB8EDFFFFFFED
:100A90000B010000426842B1016811F8013B23B12B
:100AA000521EC0E90012184670470121C160881E1D
:100AB000704742685AB1C368016843B983688B4282
:100AC00005D0491E521CC0E90012002070474FF0AB
:100AD000FF30704770B50C46016800204A1C3ED0BC
:100AE0003C22B1FBF2F302FB1313B1FBF2F12360E2
:100AF000B1FBF2F302FB1313B1FBF2F118226360B6
:100B0000B1FBF2F302FB1313B1FBF2F146F2E03258
:100B10000A440721A360B2FBF1F301FB132140F269
:100B2000B553B2FBF3F5A161B2FBF3F103FB152260
:100B30008900B2F5B77F08D39B10521EB2FBF3F5C4
:100B40002944B2FBF3F503FB15220F4BE26161610F
:100B500089077B440CD03B2A0AD3521C08E02C2185
:100B60002046FFF7F6FD0120E0600AE0521A401C23
:100B7000195C9142FAD9521CC4E903204FF0FF30AE
:100B80002062204670BD0000F78C000010B50446BE
:100B900000F0E6F90068005D00F0010010BD000003
:100BA0002DE9F34F4FF0000A0C4656468DB0012058
:100BB0000C9001F10C000B9062690B980121904799
:100BC000051E2DD0252D2CD0216A8847C0B1626921
:100BD0000B9801219047216A88470028F7D1626964
:100BE000411E0B98904700E0761CA1690D9888473C
:100BF000216A88470028F7D1E1690D988847DBE72B
:100C0000A1690D988847A842074601D1761CD3E711
:100C1000E1690D9888477F1C02D1BAF1000F6FD0AF
:100C20006CE162690B9800273D46394690472A28B7
:100C300004D162690B98012190470125DFF8D08229
:100C400062690B9801219047A0F130010A290AD26C
:100C50004745E5DC07EB870100EB4107303FDFD478
:100C600045F01005ECE7E90601D46FF000476C2869
:100C70000AD04C2814D0682815D06A280DD07428C2
:100C80001CD07A281AD01DE062690B980121904788
:100C90006C2802D045F0040514E045F002050DE093
:100CA00045F020050AE062690B9801219047682809
:100CB00002D045F0080505E045F4006562690B982F
:100CC00001219047C4E9015765283DD019DC582817
:100CD0007AD00CDC452837D004DC252826D04128E2
:100CE0009ED131E046282FD0472899D12CE05B28AF
:100CF00077D0612828D063287CD0642823D15AE09B
:100D0000F7E06F2848D008DC66281DD067281BD084
:100D1000692821D06E2816D127E0702845D0732885
:100D200068D0752847D078280DD14DE0A1690D987D
:100D30008847252805463FF469AFE1690D98884743
:100D40006D1C3FF46AAFD9E00D9923466A466FF0F7
:100D50000100AFF30080C6E045F0400023464FF0AD
:100D600000026060A80736D43EE0E8077FF447AF92
:100D70002068011D21600068290501D506701BE768
:100D8000290701D5068017E7A90703D5F117C0E9A0
:100D9000006111E706600FE745F0400023464FF081
:100DA00008026060A80716D41EE040F60E0125EA8E
:100DB0000100606016E045F0400023464FF00A0253
:100DC0006060A80707D40FE045F040006060A80706
:100DD00008D5234610220D996FF00100AFF3008073
:100DE00081E007E0102223460D996FF00100FFF724
:100DF00067FB78E04FF0000963284F46C8464B4632
:100E0000CB4602D05B2807D039E02079C00601D458
:100E10000120A060012732E06269D4F80CB00B9881
:100E2000012190475E2807D14FF0010949466269C8
:100E3000D4F80CB00B989047216939B900210A46C3
:100E400003AB43F82120491C0829FADBD8B32169F8
:100E500049B308F1010862690B98012190475D28A8
:100E6000F4D1B9F1000F09D0002003A951F82020D6
:100E7000D24341F82020401C0828F7DB03AB20694F
:100E8000002820794FEA40701ED05B462246CDF8FC
:100E90000080CDE901970D9900286FF0010020DA5C
:100EA000AFF300801FE0C11703AA00EBD1614B1123
:100EB00021F01F0102EB8302411A136801208840D0
:100EC00003431360C7E719E00D99224600286FF02D
:100ED0000100009702DAAFF3008004E0AFF3008076
:100EE00001E0AFF3008000280ADA401C06D10C981C
:100EF00020B14FF0FF300FB0BDE8F08F5046FAE759
:100F0000E90701D10AF1010A064400200C9053E6DA
:100F1000CCCCCC0C754600F035F8AE4605006946E1
:100F2000534620F00700854618B020B5FFF784F936
:100F3000BDE820404FF000064FF000074FF00008DA
:100F40004FF0000B21F00701AC46ACE8C009ACE85B
:100F5000C009ACE8C009ACE8C0098D467047000084
:100F600010B500F013F8001D10BD00BFB9630000FC
:100F700010B50446AFF300802046BDE81040FFF7EF
:100F80002CB9000000487047CC3D00200048704755
:100F9000EC3D0020704700004FF0013C50F8042B5E
:100FA00051F8043B9A4221D1A2EB0C03934313EA7C
:100FB000CC1317D150F8042B51F8043B9A4215D1A9
:100FC000A2EB0C03934313EACC130BD150F8042B80
:100FD00051F8043B9A4209D1A2EB0C03934313EA64
:100FE000CC13DBD04FF00000704700BFD01A01BA1D
:100FF000B1FA81F101F0180122FA01F0CB40C1F100
:101000002001DBB2C0B2C01A2CFA01F3D11A91430D
:1010100011EAC311E6D1704701491820ABBEFEE7C3
:101020002600020070B5044600688168C943C907FC
:1010300017D1816821F00101816000F0CFFE0546E3
:101040000AE000BF00F0CAFE401B022804D9206855
:101050008068C043C00706D020688068C043C007CE
:10106000F0D0002070BDA06A40F01000A062E06ADD
:1010700040F00100E062012070BD0000F8B50026DC
:101080000446009600688168C943C9072DD081686D
:1010900041F001018160164816490068B0FBF1F08B
:1010A00000E0401E00900028FBD100F097FE0546AE
:1010B00016E000BF00F092FE401B022810D9206805
:1010C0008068C043C0070BD0A06A40F01000A06247
:1010D000E06A40F00100E06284F824600120F8BD7D
:1010E00020688068C043C007E4D10020F8BD00003C
:1010F000F034002040420F00FEE770B50C46054674
:1011000000F062FE40B94FF47A7000F05BFD2146BA
:10111000284600F059FE08B1002070BD012070BDC6
:1011200070B50C46054600F04FFE38B9642000F05B
:1011300049FD2146284600F047FE08B1002070BD59
:10114000012070BD30B50F4B1A68402A13D20E49EA
:101150009C68002000EB400351F82350142D0CDA5A
:101160006D1D142D09DD01EB83035B68934202DCE6
:101170002344934201DA012030BD401C0328E9DBFF
:10118000002030BD3C340020743900201FB5002001
:10119000019002904FF48070009003200390694604
:1011A000014800F021FD1FBD000801401FB50020CF
:1011B00002904FF480700090012001900320039072
:1011C0006946024800F010FD1FBD00000008014004
:1011D0002DE9F0410024FFF7E9FF2B4D4FF4807615
:1011E00000223146284600F0F4FD44F2506000F041
:1011F00090F801223146284600F0EBFD142000F063
:1012000088F8FFF7C3FF142000F083F83146284622
:1012100000F0DAFD1D4F28B126E0012000F079F83A
:10122000641CE4B23146284600F0CEFD08B9642CB7
:10123000F3D3002404E0012000F06BF8641CE4B256
:101240003146284600F0C0FD012801D1642CF2D3BC
:101250005FF0000400F01CF83855641CE4B2052C63
:10126000F8D3322000F055F838787978FA780844C5
:10127000B978114408443979814202D10120BDE88E
:10128000F0810020FBE70000000801400000002082
:101290002DE9F0470024254626464FF48079DFF8F3
:1012A0006C8004E0012000F034F86D1CEDB24F4674
:1012B0004946404600F088FD08B9642DF2D3002568
:1012C000282000F026F8B9463946404600F07CFD5B
:1012D000012801D0002706E0012704E0012000F0EA
:1012E00018F86D1CEDB24946404600F06DFD01282E
:1012F00001D1642DF2D36006761C0025F6B247EAD0
:101300001064082ED3D32046BDE8F08700080140C2
:10131000704708B500EBC00020F06040009000BFAF
:101320000098411E0091FAD208BD000000B585B0BA
:10133000818800918378427807A101A8FEF78EFF8B
:1013400001200090182301AA1421102002F07FFD33
:1013500002F052FC05B000BD253032643A2530322F
:10136000643A2530326400002DE9FF4702F0C0FAEC
:101370001E4E03221420317802F0D0FADFF870807C
:1013800000244FF0010900BF04EB440558F8250084
:10139000421E7F2A15D808EB8507CDF80090C2B20F
:1013A0003B79C0B2002102F01BFBCDF800903979E7
:1013B000337A18F825001944C2B2C9B23F2302F0AB
:1013C0000FFB641C032CDFDB0AA101A8F268FEF707
:1013D00045FF0021082301AA0846CDF8009002F03D
:1013E00036FD02F009FCBDE8FF8700003C34002018
:1013F0007439002053636F72653A20256400000041
:101400007CB5FFF7E5FE174D174C28786070C820B3
:1014100000F0D8FBFFF7DCFEA878207001250C2631
:10142000CDE90065022362782821302002F08AFC91
:101430000C23252228214020009502F011FCCDE943
:101440000065022322783221302002F07BFC0C233D
:10145000432232214020009502F002FCBDE87C408E
:1014600002F0CABB000000205834002072B6FEE72C
:1014700000251E260B4C022700F05CF803F08AF8CA
:10148000FFF772FFFFF75EFE40B103F0DDFAC4E93B
:10149000006501F0FFFFE560C4E90575322000F04A
:1014A00091FBE9E73C34002008B502F021FA012461
:1014B000102316A200211420009402F0C8FC0C2373
:1014C00015A21E210A20009402F0C1FC02F094FB38
:1014D000E503164C02E00A2000F074FB2946204682
:1014E00000F072FC0028F6D02946204600F06CFC83
:1014F0000028F9D102F0FCF902F07EFB02F050FD69
:101500000B49086101F0C6FFFFF7B2FF466C61703E
:1015100070792042697264005072657373204F4B7A
:1015200020746F2073746172740000000008014021
:101530003C34002010B50A4C6068401C6060216893
:10154000084420604FF40041064800F03DFC10B90B
:101550006FF002006060BDE8104003F01BB80000AF
:101560003C34002000080140F8B5002504460095F1
:1015700090F8240001280BD0012084F82400204694
:10158000FFF750FD2046FFF779FD060002D050E03E
:101590000220F8BDA06A20F4885040F00200A0624A
:1015A000022000F0B1FD25490968B1FBF0F04000D0
:1015B00000E0401E00900028FBD12068816841F0C7
:1015C0000801816000F00AFC074608E000F006FC14
:1015D000C01B0A2803D920688068000715D420683A
:1015E00080680007F2D42068816841F004018160BE
:1015F00000F0F4FB074612E000F0F0FBC01B0A28E5
:101600000DD920688068400709D5A06A20F0020043
:1016100040F01000A06284F824500120F8BD20683A
:1016200080684007E8D4A06A20F0020040F0010082
:10163000A06284F824503046F8BD0000F034002049
:10164000F8B50024009490F824202546012A12D0F1
:10165000012280F824204A681F23072A0DD2066839
:10166000776B521E02EB820293409F430B689340BC
:101670001F43776319E00220F8BD06680D2A0AD2DD
:10168000376BD21F02EB820293409F430B6893405B
:101690001F43376309E0F76A0D3A02EB8202934079
:1016A0009F430B6893401F43F7620A68072306684D
:1016B0000A2A0AD3F7680A3A02EB420293409F4390
:1016C0008B6893401F43F76008E0376902EB4202E2
:1016D00093409F438B6893401F4337610A68102AE9
:1016E00001D0112A20D1124B02689A4217D1936877
:1016F0001B0219D4936843F400039360096810290E
:1017000012D10C490C4A0968B1FBF2F101EB8101DD
:10171000490000E0491E00910029FBD104E0816AE4
:1017200041F020018162012480F824502046F8BD58
:1017300000240140F034002040420F000068C06CDB
:10174000704700002DE9F0414FF0000704003D46CE
:101750007ED0A06A002628B9E66284F8246020467C
:1017600000F07EF82046FFF75DFCA16AC90600D4B0
:1017700020B1A06A40F01000A06269E0A16A21F4E3
:10178000885141F00201A1626268E169237B0A434A
:1017900047EA43010A43A1684FF48077B94209D070
:1017A000012907D05FF0000194F814C0BCF1010FCB
:1017B00002D00AE03946F7E7F3B1A36A43F0200309
:1017C000A362E36A43F00103E3622368D3F804C031
:1017D0002CF4694C4CEA010CC3F804C021688B68F6
:1017E000DFF870C003EA0C0313438B60A168B942B1
:1017F0000BD0012909D00CE0DFF85CC0A3690CEB29
:1018000043330B4343F40061DFE7218A0D05A5F55F
:1018100080152168CB6A23F470032B43CB622168C7
:1018200089680E4B1940914208D1E662A16A21F005
:10183000020141F00101A162BDE8F081A06A20F03F
:10184000020040F01000A062E06A40F00100E06297
:101850000120F1E7FDF7E1FF00E0FFFFFE0E1FFFB3
:1018600010B586B0002100910191029103911A4CAC
:1018700003681A4903221A48A34211D18B6943F421
:1018800000738B618B6903F4007304938B6943F0DD
:1018900004038B61896901F004010491082113E0BC
:1018A000104CA34215D18B6943F480638B618B6923
:1018B00003F4806304938B6943F004038B618969AB
:1018C00001F0040104910421CDE90012694600F001
:1018D0008BF906B010BD000000240140001002404A
:1018E00000080140002801402DE9F84300270D467B
:1018F0000446009700F072FA804620688168C905A6
:1019000008D5A06A40F02000A06284F8247001206D
:10191000BDE8F8834168C90503D4C06A10F4700FAC
:101920002AD0022000F0F0FB3B490968B1FBF0F639
:101930002068036939490B424FEA61014FEAA1125D
:101940001FD1C3684FEA611C13EA0C0F19D1036958
:101950000B4225D1C068104222D1142023E0681C1C
:101960000AD02DB100F03AFAA0EB0800A84203D942
:1019700020680068800725D5206800688007EED5BC
:101980002DE003690B4202D1C168114206D0026901
:1019900023490A4206D1C068084203D1542002E01C
:1019A000292000E0FC204643009816E0681C11D076
:1019B0002DB100F013FAA0EB0800A8420AD9009854
:1019C000B04207D2A06A40F00400A06284F82470FC
:1019D00003209DE70098401C0090B042E6D32168A8
:1019E0006FF012000860A06A40F40070A0622068E6
:1019F0008068C0F3424007280CD1207B50B9A06A10
:101A000020F48070A062A06AC00403D4A06A40F0F1
:101A10000100A06200207BE7F034002024499224DA
:101A20004992240070B5044690F8240001280DD096
:101A3000012084F824002046FFF720FB02004FF02D
:101A4000000005D084F82400104670BD022070BD4F
:101A5000A16A40F20123994341F48071A1621F4DB4
:101A600023681F49AB4218D10E6816F4702F14D0AA
:101A7000A66A46F48016A6620E68760505D5A66AA3
:101A800026F4005646F48056A662A66AF6040AD5E5
:101A9000E66A26F00606E66206E0A66A26F48016E6
:101AA000A6625E68E9E7E06284F824006FF0020055
:101AB000186020688368C3F34243072B05D1A8420E
:101AC00008D1096811F4702F04D0816841F48011A5
:101AD0008160B9E7816841F4A001F9E7002801407D
:101AE0000424014010B590F821100022022905D0ED
:101AF0000421816380F82020012010BD01680B685B
:101B000023F00E030B6001680B6823F001030B60E8
:101B100090F84030C46B012101FA03F3636080F850
:101B2000211080F82020104610BD000010B590F85C
:101B300021100024022903D00421816301243DE007
:101B400001680A6822F00E020A6001680A6822F041
:101B500001020A601A4A0168914201D1012121E083
:101B6000174A1432914201D110211BE0144A283245
:101B7000914201D1891515E0114A3C32914201D1BF
:101B800089140FE00E4A5032914202D14FF4803155
:101B900008E00B4A6432914202D14FF4801101E017
:101BA0004FF08071064A083A5160012180F82110F7
:101BB000002180F82010416B01B18847204610BDFC
:101BC0000800024070B5044600F008F90546601CA4
:101BD00002D004480078044400F000F9401BA04201
:101BE000FAD370BDE43400202DE9F84FDFF8B89146
:101BF0000024A9F1040B23460F2709F1040AABF1D5
:101C0000040EC9E00125A5402A40AA427DD1674EB5
:101C1000D1F804C0ACEB0608B44532D014DCBCF1FA
:101C2000030F3AD009DCBCF1000F2AD0BCF1010F40
:101C30001CD0BCF1020F31D11DE0BCF1110F17D047
:101C4000BCF1120F2AD119E0B8F5881F19D006DCB3
:101C5000B8F5803F15D0B8F5801F1FD111E0B8F559
:101C6000001F0ED0B8F5041F18D10AE0CB6815E0AC
:101C7000CB681B1D12E0CB6808330FE0CB680C3338
:101C80000CE08B682BB1012B4FF0080303D04561AA
:101C900004E0042302E0056100E00023FF2A01D8EC
:101CA000064601E000F104064FEA840501D9A5F1DA
:101CB0002005D6F8008007FA05FC28EA0C0803FA8C
:101CC00005F548EA0508C6F800804D68ED0062D5C4
:101CD000374DAE6946F00106AE61AD6924F00306EA
:101CE00005F001050095334D06EB050CDCF80850B6
:101CF000A607360F07FA06F825EA0805DFF8B880C8
:101D0000404503D14FF0000817E044E0DFF8AC8015
:101D1000404502D14FF001080FE0DFF8A4804045B4
:101D200002D14FF0020808E0DFF89880404502D168
:101D30004FF0030801E04FF0040808FA06F848EAFB
:101D40000508CCF808804D68D9F80060ED024D46D2
:101D500001D5164300E096432E604D68DAF8006026
:101D6000AD02554601D5164300E096432E604D68FE
:101D7000DBF80060AD035D4601D5164300E09643F5
:101D80002E604D68DEF80060ED03754601D5164300
:101D900000E096432E60641C0D682A46E5407FF4FF
:101DA00031AFBDE8F88F00000804014000001110B9
:101DB000001002400000014000080140000C0140FA
:101DC00000100140001401408068084000D001204C
:101DD00070470AB1016170470904FBE70148806858
:101DE00070470000E434002070B5040025D094F85A
:101DF0003D00002520B984F83C50204600F0B8F89A
:101E0000242084F83D002068016821F00101016070
:101E10002068016841F4004101602068016821F4F4
:101E20000041016000F0CEFA4D4A6168914201D84C
:101E30004C4900E04C49884201D2012070BD4B4919
:101E40002368B0FBF1F15E6826F03F060E435E604A
:101E50006368934206D94FF4967359434FF47A73EB
:101E6000B1FBF3F12368491C1E6A26F03F0631439B
:101E700019626168914210D84900401EB0FBF1F22E
:101E8000521CC2F30B02042A01D2042022E0B0FB50
:101E9000F1F0401CC0F30B001CE0A268F2B301EBB0
:101EA000C10303EB0116431EB3FBF6F35B1C43F4C3
:101EB00080431B0549D092B301EBC10202EB011133
:101EC000401EB0FBF1F0401CC0F30B0040F480401A
:101ED00040F400402168CA694CF6FF739A431043EE
:101EE000C861D4E9071001432068026822F0C002EB
:101EF00011430160D4E9030101432068826848F27C
:101F0000FF339A4311438160D4E9050108432168F6
:101F1000CA6822F0FF021043C86001E00EE016E03C
:101F20002068016841F0010101602564202084F8E7
:101F30003D00256384F83E50002070BD01EB410652
:101F4000431EB3FBF6F35B1CB3E70120C2E701EBD2
:101F50004101401EB0FBF1F0401CC0F30B00B7E79D
:101F6000A086010080841E0000093D0040420F0051
:101F700010B586B000210091019102910391006893
:101F80000F4988421AD10F4CA06940F00800A061A7
:101F9000A069694600F008000490C020009012205B
:101FA0000190032003900848FFF71EFEE06940F40B
:101FB0000010E061E06900F40010049006B010BD6C
:101FC0000054004000100240000C014002488168AB
:101FD0000278114481607047E4340020074810B54E
:101FE000016841F010010160032000F075F80F2036
:101FF00000F006F800F024F8002010BD0020024098
:1020000070B50D4D04464FF47A712878B1FBF0F0AD
:102010000A490968B1FBF0F000F03BFC48B9102C0C
:1020200007D200222146501E00F036F800206C60D6
:1020300070BD012070BD0000E4340020F0340020A9
:102040000C4808B5816941F001018161816901F0A5
:1020500001010091C16941F08051C161C06900F086
:10206000805000900448416821F0E06141F0007127
:10207000416008BD0010024000000140002809DB5B
:1020800000F01F02012191404009800000F1E02092
:10209000C0F8001170470000F0B40E4B1B680C46EE
:1020A000C3F30223C3F10705042D00D90425191D2C
:1020B000072901D2002300E0DB1E012606FA05F104
:1020C000491E214099409E40761E16403143F0BC87
:1020D00002F0CFBA0CED00E0064900F007020868F4
:1020E0004FF6FF03184040EA0220034A10430860FD
:1020F000704700000CED00E00000FA0501490120E6
:102100000862704700000E4210B501460020234CC3
:10211000012922D0022939D010291DD161682268F5
:10212000D20119D51E48C1F38342C903805C0AD588
:1021300061681B4AC1F34041921E515C194AB2FBCF
:10214000F1F1484301E0184948436168490203D46A
:1021500040000321B0FBF1F010BD226AC2F301215F
:10216000012903D1920701D5C80310BD022905D169
:10217000626A920702D549F6404010BD0329FCD19E
:1021800021688903F9D54FF2244010BD00F02AF9E7
:102190006168C1F38131491C4900DBE7001002404E
:1021A0001498000800127A0000093D002DE9F84358
:1021B00005460078354CC00754D0E0690026C000C1
:1021C00008D4E06940F08050E061E069012600F049
:1021D000805000902E480168C90512D401688046DD
:1021E00041F480710160FFF7F9FD074605E000BF8B
:1021F000FFF7F4FDC01B642823D8D8F80000C00501
:10220000F6D5206A10F4407021D0A98801F44071FD
:1022100081421CD0206A1F49012220F440700A60CC
:1022200000220A602062C00711D0FFF7D7FD0746E1
:1022300041F2883808E000BFFFF7D0FDC11B4145DF
:1022400002D90320BDE8F883206A8007F4D5206A0C
:10225000696820F44070084320621EB1E06920F0F4
:102260008050E0612878800705D56068A96820F46F
:102270004040084360602878C00605D56068E9687A
:1022800020F48000084360600020DBE7001002407B
:1022900000700040400442422DE9F0470F4605001F
:1022A00061D0434E306800F00700B84209D2306870
:1022B00020F0070038433060306800F00700B84273
:1022C00051D128683B4C810712D5400703D560687F
:1022D00040F4E06060602878000703D5606840F44F
:1022E000605060606068A96820F0F000084360609A
:1022F0002878C00728D06868012810D021680228F3
:1023000010D0890700292EDA616821F0030101430A
:102310006160FFF763FD804641F288390DE0216876
:102320008903EFE78901EDE7FFF758FDA0EB08010E
:10233000494502D90320BDE8F0876068696800F06C
:102340000C00B0EB810FEFD1306800F00700B8420D
:102350000BD9306820F0070038433060306800F057
:102360000700B84201D00120E5E72878400705D5ED
:102370006068E96820F4E06008436060287800073E
:1023800006D56068296920F4605040EAC1006060A9
:1023900000F038F86168084AC1F30311515CC84085
:1023A0000649086006480068FFF72AFE0020C2E7D9
:1023B000002002400010024024980008F034002061
:1023C000E83400200448054900684968044AC1F31C
:1023D0000221515CC8407047F034002000100240D8
:1023E000349800080448054900684968044AC1F364
:1023F000C221515CC8407047F034002000100240F8
:10240000349800080E4A51680E4801F00C03042B62
:1024100011D0082B0FD10C48C1F38343C903C05C12
:102420000AD55168084AC1F34041921E515C054AE1
:102430005043B0FBF1F07047044948437047000037
:102440000010024000127A000298000800093D00C6
:102450002DE9F84F040070D02078C04DC00749D056
:102460006868C0F38100012807D06868C0F3810064
:10247000022809D16868C00306D52868800339D5C9
:1024800060680028E7D035E06068B0F5803F0BD089
:1024900010B1B0F5A02F11D0286820F4803028604A
:1024A000286820F4802002E0286840F4803028600A
:1024B000606890B1FFF792FC06460AE0286840F495
:1024C00080202860F0E700BFFFF788FC801B6428AD
:1024D00073D828688003F7D50CE0FFF77FFC064629
:1024E00005E000BFFFF77AFC801B6428F0D828685D
:1024F0008003F7D420789A4E80074FF001094FF0FF
:10250000000839D5686810F00C0F07D06868C0F370
:102510008100022809D16868C00306D428688007B2
:1025200014D52069012808D110E02069B0B1C6F89F
:102530000090FFF753FC074605E00AE1FFF74EFC69
:10254000C01B0228C4D828688007F7D528686169AD
:1025500020F0F80040EAC10028600DE0C6F80080D5
:10256000FFF73CFC074604E0FFF738FCC01B0228DD
:1025700023D828688007F7D4207800072CD579481D
:10258000A169D9B1C0F80090FFF728FC074604E024
:10259000FFF724FCC01B02280FD8686A8007F7D514
:1025A00071484FF4FA510068B0FBF1F0009000BFA1
:1025B0000098411E0091FAD20EE080E0C0F8008041
:1025C000FFF70CFC074604E0FFF708FCC01B0228DD
:1025D00075D8686A8007F7D42078400760D5E86925
:1025E0000027C00008D4E86940F08050E861E8693D
:1025F000012700F0805000905C480168C90513D4A1
:102600000168834641F480710160FFF7E7FB824671
:1026100006E000BFFFF7E2FBA0EB0A0064284ED8FB
:10262000DBF80000C005F5D5E06801280AD008B144
:10263000052813D0286A20F001002862286A20F0BB
:10264000040002E0286A40F001002862E06841F2DC
:10265000883B98B1FFF7C2FB82460BE0286A40F046
:1026600004002862EEE700BFFFF7B8FBA0EB0A0109
:1026700059455AD8286A8007F6D50CE0FFF7AEFB1B
:10268000824605E0FFF7AAFBA0EB0A0159454CD8AA
:10269000286A8007F6D41FB1E86920F08050E8610D
:1026A000E06988B36968C1F38101022944D0022836
:1026B000C6F8608004D0FFF791FB044638E034E0B0
:1026C000FFF78CFB074604E0FFF788FBC01B0228DE
:1026D0002BD828688001F7D4206AB0F5803F05D157
:1026E0006868A16820F4003008436860D4E90801F4
:1026F0000843696821F4741108436860C6F8609063
:10270000FFF76CFB044606E025E000BFFFF766FB21
:10271000001B022809D828688001F7D51BE000BFFC
:10272000FFF75CFB001B022802D90320BDE8F88FED
:1027300028688001F4D40EE00128F7D06868226A86
:1027400000F48031914204D1616A00F47010884233
:1027500001D00120EAE70020E8E700000010024075
:102760000000424280044242F034002000700040E9
:10277000024850F8210080B270470000006C004011
:10278000024800EB810091B201607047006C00408C
:1027900070B5040003D0607C002610B105E0012074
:1027A00070BD2674204600F03DF80220607420467B
:1027B00000F052F8042550BB204601F082FB30BBEC
:1027C0002068416821F007014160A06820B11448E9
:1027D000016821F0010101601148001F0168A26831
:1027E00021F46071114301606068411C04D1012033
:1027F000FFF78AFC58B1401E2268C0F30341916084
:10280000216880B2C860204601F076FB08B165748B
:10281000C5E7E67301206073A0736074002070BD8B
:10282000306C004008B50068084988420DD1FFF7B8
:1028300065FC0748C16941F00061C161C069054993
:1028400000F0006000900120086008BD00280040F2
:10285000001002403C04424270B504000AD02068D7
:10286000416821F008014160FFF7B8FA05464FF4CE
:102870007A7608E0012070BDFFF7B0FA401BB04245
:1028800001D9032070BD206840680007F4D50020FE
:1028900070BD10B5401EB0F1807F01D3012010BD86
:1028A0004FF0E02460610F21601701F0E2FE00208C
:1028B000A06107202061002010BD70477047000014
:1028C00070B590F83C20012A26D0012480F83C40C5
:1028D000022280F83D2003685A689D6822F0700645
:1028E0000A6832435A600D4B02689A4208D0B2F12E
:1028F000804F05D00A4B9A4202D00A4B9A4204D12B
:10290000496825F080031943916080F83D4000211B
:1029100080F83C10084670BD022070BD002C0140BC
:10292000000400400008004010B5040003D094F8F3
:102930003D0010B107E0012010BD002084F83C00EC
:10294000204600F01FF8022084F83D00211D206879
:1029500001F0B8FB012084F8460084F83E0084F8BA
:102960003F0084F8400084F8410084F8420084F875
:10297000430084F8440084F8450084F83D000020BA
:1029800010BD000008B501681648B1F1804F0AD0AB
:10299000154A914219D1C16941F00201C161C06972
:1029A00000F002001BE0C16941F00101C161C06992
:1029B000002200F00100009011461C20FFF76CFB84
:1029C000BDE808401C20FFF759BB084A914207D1D7
:1029D000C16941F00401C161C06900F004000090C8
:1029E00008BD000000100240000400400008004044
:1029F00090F83D10012901D001207047022180F894
:102A00003D100168CA6842F00102CA6000680B49C3
:102A1000884208D0B0F1804F05D00949884202D0E1
:102A20000849884204D1816801F00701062903D0D2
:102A3000016841F00101016000207047002C014055
:102A4000000400400008004070B5044690F83C00C7
:102A50000025012817D0012684F83C60022084F864
:102A60003D002068826822F0770222F47F42826073
:102A70000868502838D00DDC20284FD005DC90B3F2
:102A8000102811D14AE0022070BD302846D04028DD
:102A90000AD13BE060282FD070280DD0B0F5805FC0
:102AA00003D0B0F5005F12D0012584F83D6000200E
:102AB00084F83C00284670BDCB68D1E9012120682C
:102AC00001F049FB2068816841F0770109E0CB689B
:102AD000D1E90121206801F03EFB2068816841F4C2
:102AE00080418160E1E719E0CA684968206801F027
:102AF000E7FB5021206806E0CA684968206801F0B9
:102B0000F0FB6021206801F030FBCEE7CA6849681D
:102B1000206801F0D5FB40212068F4E722680146D7
:102B20001046F0E770472DE9F04104460068C6689A
:102B300005694FF00007A90713D5B10711D5F91E94
:102B4000016101202077206880698007204602D03B
:102B5000FFF7E8FF04E000F0C7F8204600F059F95D
:102B60002777680716D5700714D521686FF0040021
:102B70000861022020772068806910F4407F204699
:102B800002D0FFF7CFFF04E000F0AEF8204600F0DF
:102B900040F92777280715D5300713D521686FF03E
:102BA00008000861042020772068C069800720465B
:102BB00002D0FFF7B7FF04E000F096F8204600F0DF
:102BC00028F92777E80616D5F00614D521686FF0A6
:102BD00010000861082020772068C06910F4407F49
:102BE000204602D0FFF79EFF04E000F07DF820466B
:102BF00000F00FF92777E80708D0F00706D0216822
:102C00006FF001000861204600F08AF9280608D517
:102C1000300606D521686FF0800008612046FFF776
:102C20004CFE680608D5700606D521686FF0400096
:102C30000861204600F082F9A8060AD5B00608D53A
:102C400021686FF0200008612046BDE8F041FFF7E1
:102C500035BEBDE8F081000030B585B0002100919F
:102C600001910291039100681A4A1B4902241B4DED
:102C7000904219D1886940F004008861886900F0A9
:102C800004000490886940F00800886188696946FA
:102C900000F0080004904020CDE90004104803949F
:102CA000FEF7A2FF03200BE00E4A90420FD1886985
:102CB00040F008008861886900F0080004909015D1
:102CC000CDE90004694628460394FEF78DFF05B060
:102CD00030BD00000004004000100240000C014024
:102CE0000008014000080040704770B5044690F8A5
:102CF0003C0000260D4601280FD0012084F83C003E
:102D00006AB1042A1DD0082A2FD00C2A3FD00126F0
:102D1000002084F83C00304670BD022070BD206861
:102D200001F02CFA2068816941F008018161206876
:102D3000816921F004018161206881692A69114358
:102D400011E0206801F042FA2068816941F40061D5
:102D500081612068816921F48061816120688169D5
:102D60002A6941EA02218161D2E7206801F05AFA1A
:102D70002068C16941F00801C1612068C16921F082
:102D80000401C1612068C1692A69114311E020680A
:102D900001F074FA2068C16941F40061C1612068E2
:102DA000C16921F48061C1612068C1692A6941EA71
:102DB0000221C161ACE710B5040003D094F83D00D6
:102DC00010B107E0012010BD002084F83C0020462F
:102DD00000F01EF8022084F83D00211D206801F05B
:102DE00071F9012084F8460084F83E0084F83F0021
:102DF00084F8400084F8410084F8420084F84300DD
:102E000084F8440084F8450084F83D00002010BD9B
:102E10007047704710B50446022249B104290ED00C
:102E2000082913D094F84100012816D0012010BDC4
:102E300094F83E000128F9D184F83E200FE094F880
:102E40003F000128F2D184F83F2008E094F84000C8
:102E50000128EBD184F8402001E084F841200122D0
:102E6000206801F06BF90F492068884203D1426C59
:102E700042F4004242642068884208D0B0F1804F9A
:102E800005D00949884202D00849884204D18168A6
:102E900001F00701062903D0016841F0010101603A
:102EA000002010BD002C014000040040000800403C
:102EB00030B504460D460068002201F03FF9174B7B
:102EC00041F2111120688A10984209D1036A0B421D
:102ED00006D1036A134203D1436C23F400434364D5
:102EE0002068036A0B4206D1016A114203D10168CE
:102EF00021F00101016001203DB1042D08D0082D11
:102F000009D084F84100002030BD84F83E00FAE783
:102F100084F83F00F7E784F84000F4E7002C014014
:102F200005498A79002A06D00068B0F1804F02D1A5
:102F3000486B401C48637047583400207047704706
:102F4000704710F8411F407808437047F8B5016892
:102F500004460868CA684B6910F00F0F4FF000056F
:102F600059D003F0010602F49077374365D0C107CA
:102F700005D0D10503D5616C41F0010161644107C1
:102F800005D5D90703D0616C41F002016164810766
:102F900005D5D90703D0616C41F0040161640107D4
:102FA00007D502F02001314303D0616C41F00801E4
:102FB0006164616C00293AD0800604D5900602D580
:102FC000204601F0CFF920684069616CC0F38010A1
:102FD000090700D460B3204601F09DF920684069DC
:102FE000400621D52068143050E8001F21F0400130
:102FF00040E80012002AF5D1E06BA8B16D494163A9
:10300000E06BFEF793FD002811D0E06B416B01B03F
:10301000BDE8F040084783060FD593060DD520463E
:10302000BDE8F84001F09EB92046FFF789FFF8BDE2
:103030002046FFF785FF6564F8BD266B2023012E2F
:103040007CD1C6067AD5D60678D50868486800903F
:1030500048694FF00206400640D5E16B08684068B9
:103060000004000CE8D0A28D8242E5D9E085886991
:1030700020282DD020680C3050E8001F21F48071EA
:1030800040E80012002AF5D12068143050E8001FF3
:1030900021F0010140E80012002AF5D12068143027
:1030A00050E8001F21F0400140E80012002AF5D14D
:1030B00084F84230256320680C3050E8001F21F06E
:1030C000100140E80012002AF5D1E06BFEF70AFD7E
:1030D0006663A08DE18D401A81B22AE0A08DE18D5A
:1030E000401A81B2E08D0028A6D00029A4D0226821
:1030F0000C3252E8000F20F4907042E80007002FD5
:10310000F5D12068143050E8002F22F0010240E889
:103110000027002FF5D184F84230256320680C3059
:1031200050E8002F22F0100240E80023002BF5D1D8
:1031300066632046FFF703FFF8BDFFE705062BD5C2
:10314000150629D594F841002128F5D1A068B0F5DD
:10315000805F01D12069B0B1206A411C21622168E1
:1031600000784860E08C401E0004000CE084E3D14D
:103170002068C16821F08001C1602068C16841F009
:103180004001C160D8E7206A0088C0F308004860A9
:10319000206A801C2062E5E74006CDD55006CBD5DD
:1031A000CA68204622F04002CA6084F8413000F02C
:1031B00015F9C1E70743000870B5040004D094F87E
:1031C0004100002510B106E0012070BD84F8405098
:1031D000204600F023F8242084F841002068C168CC
:1031E00021F40051C160204601F01EF920680169F8
:1031F00021F4904101612068416921F02A01416177
:103200002068C16841F40051C1606564202084F8E1
:10321000410084F842006563002070BD30B585B080
:103220000024009401940294039400681849884291
:103230002CD11848816941F480418161816901F490
:1032400080410491816941F0040181618069124DDE
:1032500000F0040004904FF40070009002200190F0
:103260000320039069462846FEF7BEFC2815CDE9E9
:103270000004694628460294FEF7B6FC0022114677
:103280002520FEF709FF2520FEF7F8FE05B030BD2A
:1032900000380140001002400008014090F8423020
:1032A000202B01D00220704721B11AB10023036303
:1032B00001F016B9012070472DE9F0411C480026A5
:1032C0000179FF2906D306714FF480711948FDF783
:1032D0001EFA25E0174C037A63544279F2B9C27999
:1032E0008D1A655D3C2D19D1521CD2B2C2713E2B94
:1032F00001D00E2A12D30F4F00258A1A0F3F4B1C04
:1033000006E000BF14F802C007F805C06D1CEDB25E
:10331000521C9A42F6DB01224271C671491C0171AE
:10332000BDE8F0410249012208310348FFF7B6BF6A
:1033300058340020A7390020743C00202DE9F843C0
:10334000044690F84100984616460D46202802D0C3
:103350000220BDE8F88385B17EB1002060642120A1
:1033600084F84100FEF73AFDA6848146E684A06811
:103370002027B0F5805F02D003E00120E9E7206953
:1033800010B12E4600250EE000260CE080212046DC
:1033900001F0C1F8A8B9C6B116F8010B2168486060
:1033A000E08C401EE084E08C4B464FF00002CDF8EC
:1033B00000800028EAD14FF04001204601F0ABF830
:1033C00040B184F841700320C3E735F8020BC0F325
:1033D0000800E3E784F841700020BAE77047FEE791
:1033E00010B50E4C012280212046FEF7F2FC01228E
:1033F00040212046FEF7EDFC00F046F80022802137
:103400002046FEF7E6FC00F03FF80022402120466F
:10341000FEF7DFFCBDE8104000F036B8000C0140BC
:1034200010B50A4C002280212046FEF7D2FC012272
:1034300040212046FEF7CDFC00F026F82046012270
:10344000BDE810408021FEF7C4BC0000000C014024
:1034500010B50C4C012280212046FEF7BAFC00F08A
:1034600013F8012240212046FEF7B3FC00F00CF8CF
:10347000002240212046FEF7ACFCBDE8104000F0E1
:1034800003B80000000C01400320401EC0B2FCD273
:10349000704700002DE9F04100240C4D28272B2116
:1034A00004FB01F004EB4406803045F82600FCF7ED
:1034B0009BFE90FBF7F107FB110005EB86010A303C
:1034C000641C4860032CEADBBDE8F08174390020FD
:1034D0003EB5002411480094019402940E49846082
:1034E000016004730475012505614FF46021446097
:1034F000C161FEF727F908B1FDF7B8FF0320CDE958
:103500000005694602940548FEF79AF8002801D0A4
:10351000FDF7ACFF3EBD000000240140D43A00207E
:103520003EB5002411480094019402940E49846031
:10353000016001250573047505614FF46021446045
:10354000C161FEF7FFF808B1FDF790FF0220CDE959
:103550000005694602940548FEF772F8002801D07C
:10356000FDF784FF3EBD000000280140043B002021
:1035700070B586B00024244800940194029403940A
:10358000816941F010018161816901F010010491AC
:10359000816941F020018161816901F0200104917C
:1035A000816941F004018161816901F004010491A4
:1035B000816941F0080181618069144E00F00800C2
:1035C0004FF4C0750490002229463046FEF701FCF6
:1035D0000220CDE90240009501256946019530465B
:1035E000FEF702FB4FF468408DE831006946084859
:1035F000FEF7FAFA4FF418408DE83100694630467C
:10360000FEF7F2FA06B070BD00100240000801405B
:10361000000C01400D4810B50B4901600C49416098
:1036200000214FF480428160C0E903124161816151
:10363000C1610162FEF7D8FB002803D0BDE810404D
:10364000FDF714BF10BD000000540040343B0020C3
:10365000A08601000548044901604FF0FF31416038
:103660004FF480718160704700280040883B002043
:1036700010B586B000241648009401940294039477
:1036800004944FF080410594016041F61F41C0E968
:1036900001146321C0E903148461FFF745F908B1FF
:1036A000FDF7E4FE4FF48050009069460848FFF7AC
:1036B000CBF908B1FDF7DAFE049404A90448059497
:1036C000FFF7FEF8002801D0FDF7D0FE06B010BDD0
:1036D0009C3B002010B58EB00024079408940994F8
:1036E0000A940B941C2168460C94FDF732F8264886
:1036F000244901604721C0E901146321C0E9031492
:103700008461FFF711F908B1FDF7B0FE4FF4805066
:10371000079007A91C48FFF797F908B1FDF7A6FE27
:103720001948FFF748FB08B1FDF7A0FE0B940BA961
:1037300015480C94FFF7C4F808B1FDF797FE602018
:1037400000903220CDE90104002269460E4804941D
:10375000FFF7CBFA08B1FDF789FE082269460A484F
:10376000FFF7C3FA08B1FDF781FE0C22694606484F
:10377000FFF7BBFA08B1FDF779FE0348FFF76CFAD3
:103780000EB010BD00040040E43B002010B58EB028
:1037900000240794089409940A940B941C21684609
:1037A0000C94FCF7D6FF1E481C49C0E900144FF6E4
:1037B000FF71C0E9024104618461FFF7B5F808B107
:1037C000FDF754FE4FF48050079007A91448FFF707
:1037D0003BF908B1FDF74AFE1148FFF7ECFA08B1D2
:1037E000FDF744FE0B940BA90D480C94FFF768F805
:1037F00008B1FDF73BFE6020CDE9000402940822E9
:10380000694607480494FFF770FA08B1FDF72EFEE9
:103810000348FFF721FA0EB010BD00000008004079
:103820002C3C00200C4810B50A4901604FF4E131EE
:103830004160002181600C22C160C0E904128161F5
:10384000C161FFF7B9FC002803D0BDE81040FDF7C7
:103850000DBE10BD00380140743C00200A4808B578
:10386000006881698AB2C1698BB2816989B28A4272
:1038700003D0C06961F31F4001E043EA02400090B9
:103880006846FCF78DFF08BD883B002010B58CB062
:1038900001210E48FEF76CFF42F23334A04212D0F1
:1038A0000A48FEF775FF08B1FDF7E0FD2C22084934
:1038B0006846FCF7FAFE684600F00CF82246012143
:1038C0000248FEF75DFF0CB010BD0000883B0020F1
:1038D000D497000810B5FCF788FF0146BDE81040FA
:1038E000014800F025BB0000883B0020FEE7FEE712
:1038F00030B40021084B0A465FF0000003EBC0041F
:10390000401CC0B262548028F8D3491CC9B20829AF
:10391000F2D330BC00F070B9F43400202DE9F84F38
:1039200016460F4680460025144602FB06F951E074
:1039300008EB0500A7EB040A00900AF0FF01C0B2F3
:10394000012200F09BF8A8EB050B0AF0FF010BF039
:10395000FF00012200F092F807EB040A0AF0FF01D1
:103960000BF0FF00012200F089F800980AF0FF0137
:10397000C0B2012200F082F87819C1B208EB040A43
:1039800000900AF0FF00012200F078F8A7EB050B89
:103990000BF0FF010AF0FF00012200F06FF8A8EB26
:1039A000040A0BF0FF010AF0FF00012200F066F8A4
:1039B00000980122C1B20AF0FF0000F05FF86D1C10
:1039C00005FB05F004FB040006FB1600002801DDE2
:1039D000641E6D1E600060434845A9DABDE8F88F9B
:1039E0002DE9FE4F151ACDE900104FF000085E1AC0
:1039F00047464FF0FF30002D02DD4FF0010102E09D
:103A000003D14FF000018B4602E08346C5F100056B
:103A1000002E02DD4FF0010002E003D14FF0000064
:103A2000824602E08246C5F10006B54201DD2C4621
:103A300000E03446601C4FF00009029019E0009845
:103A40000C9AC1B20198C0B200F018F8A8443744EB
:103A5000A04504DD0198A8EB040858440190A74252
:103A600003DD00983F1B5044009009F101001FFA4C
:103A700080F902998945E2DBBDE8FE8F30B5CC08BC
:103A800001F0070301259D40EBB2064D05EBC00593
:103A9000C808285C0AB1184302E063EA0000C0438A
:103AA000285530BDF43400204D4810B5816986B0EA
:103AB00041F00801816180694A4C00F008000490DF
:103AC000C02000900120019000200290032003906C
:103AD00069462046FEF788F8012240212046FEF77D
:103AE00078F9012280212046FEF773F90022802117
:103AF0002046FEF76EF9C820FEF764F80122802107
:103B00002046FEF766F90021AE2000F0BEF9002144
:103B1000084600F0BAF90021102000F0B6F90021A3
:103B2000402000F0B2F90021812000F0AEF9002120
:103B3000CF2000F0AAF90021A12000F0A6F9002171
:103B4000C82000F0A2F90021A62000F09EF9002173
:103B5000A82000F09AF900213F2000F096F90021FA
:103B6000D32000F092F90021084600F08EF90021E0
:103B7000D52000F08AF90021802000F086F900218C
:103B8000D92000F082F90021F12000F07EF9002117
:103B9000DA2000F07AF90021122000F076F90021F5
:103BA000DB2000F072F90021302000F06EF90021D6
:103BB000202000F06AF90021022000F066F90021BF
:103BC0008D2000F062F90021142000F05EF9FFF76B
:103BD0008FFE0021AF2000F058F906B010BD0000A4
:103BE00000100240000C01400246012000E050435A
:103BF000491EC9B2FBD2704770B5184E002400BFF1
:103C000004F1B000C0B2002100F03FF900210846E5
:103C100000F03BF90021102000F037F9FFF7E0FB3E
:103C2000782000F0DFF9FFF713FC402000F0DAF90C
:103C3000FFF70EFC5FF0000506EBC500005D00F02D
:103C4000D1F9FFF705FC6D1CEDB2802DF4D3FFF721
:103C5000E7FB641CE4B2082CD2D370BDF43400201E
:103C60002DE9FC4F1C460E4682468B460190082BE0
:103C70000DD0600700D0012000EBD400610848435C
:103C8000C0B28146203AD0B2009000204BE006201E
:103C9000F7E7082C13D00C2C18D0102C1BD0182CA4
:103CA00044D10098234900EBC00000BF01EB800124
:103CB000002711F80850E80712D00B9A13E000987B
:103CC0001D4900EB400001EB4001F1E700981B4962
:103CD00000EB4000EAE71A49009801EB0011E7E722
:103CE0000B9828B3002231465046FFF7C7FE761CDA
:103CF0007F1C6D08FFB2F6B2082FDCD30AF1010079
:103D000000F0FF0A082C0AD00199AAEB0100B0EBE1
:103D1000540F04D10BF108008A4600F0FF0B08F1A4
:103D200001005E46C0B280464845B2D3BDE8FC8F74
:103D30000122D8E750860008C4790008EC7B00080F
:103D4000608000082DE9F84F0025DDE90A691F466B
:103D500092468B468046082E00D1022500241CE0A6
:103D6000381B401EC1B20A20FFF73EFFBAFBF0F03D
:103D70000A21B0FBF1F201FB1200CDF8009080B1F6
:103D80003030C2B205EB560101FB0480C0B23346AD
:103D90005946FFF765FF641CE4B2BC42E0D3BDE8BE
:103DA000F88F05EB560101FB0480C0B23346302288
:103DB000EEE72DE9FF4F82B08046019092460C4617
:103DC0004FF000098B46580700D0012000EBD300CC
:103DD0000590002032E000262BE00F98002510F817
:103DE000097009F101001FFA80F9F80701D0109A53
:103DF00002E0109848B3002221464046FFF73EFEFD
:103E0000641C6D1C7F08EDB2E4B2082DEDD308F1FF
:103E10000100019900F0FF08A8EB0101514505D10F
:103E20000BF10800DDF8048000F0FF0B761C5C4607
:103E3000F6B25645D1D30098401CC0B20090059907
:103E40008842C8D306B0BDE8F08F0122D4E72DE93F
:103E5000F8411E46154688460446079F0BE0334648
:103E6000414620460097FFF7FBFE082E0AD004EBE0
:103E70005600C4B26D1C2A78A2F120005E28EED94B
:103E8000BDE8F881A41DE4B2F4E770B50C46054620
:103E9000FFF7A6FA782000F0A5F8FFF7D9FA0CB1E1
:103EA000402000E0002000F09DF8FFF7D1FA2846FE
:103EB00000F098F8FFF7CCFABDE87040FFF7B0BA11
:103EC000704770B50446FDF789FF05464FF47A76D2
:103ED00006E0FDF783FF401BB04201D9032070BD0F
:103EE000206840688006F4D52068416841F01001E0
:103EF0004160002070BD000070B504460068416854
:103F000021F010014160FDF769FF05464FF47A7614
:103F100007E000BFFDF762FF401BB04201D903205C
:103F200070BD206840688006F4D5002070BD000098
:103F30002DE9F0410F4604460025FDF74FFF0646E8
:103F40004FF47A7805E000BFFDF748FF801B40453D
:103F50001DD8206840688006F6D52068416841F089
:103F6000100141602168380C88612168B8B2C861CD
:103F70002068416821F010014160FDF72FFF0646DF
:103F8000474606E0FDF72AFF801BB84201D901250C
:103F900003E0206840688006F4D52846BDE8F0813B
:103FA00010B504210548FEF7E3FB0446052103484C
:103FB000FEF7DEFB44EA004010BD0000883B002015
:103FC0007047000010B5044682B204210448FEF791
:103FD000D7FB220CBDE8104005210148FEF7D0BBFD
:103FE000883B002070B5104E05460024280601D5F8
:103FF000012200E0002280213046FDF7EAFEFFF7B3
:1040000043FA012240213046FDF7E3FEFFF73CFA78
:10401000002240213046FDF7DCFE6806641C050ED8
:10402000E4B2082CE2D370BD000C0140FDF7CEBF16
:1040300030B593B028216846FCF78BFB14210AA801
:10404000FCF787FB002401210F94119405201294A2
:104050000090CDE9024110944FF480300190022588
:104060000491CDE907504FF4E01009906846FEF73F
:10407000EFF908B172B6FEE70F20CDE90A054FF45B
:104080008060CDE90C4002210AA80E94FEF704F9E5
:1040900008B172B6FEE703200F904FF480701090C5
:1040A000C00111900FA8FEF781F8002801D072B668
:1040B000FEE713B030BD70470148FEF734BD000085
:1040C0009C3B0020F0B50268194B1A4C1A4D4FF07A
:1040D0008047984205D0B84203D0A04201D0A84200
:1040E00003D122F070064A683243984205D0B842A4
:1040F00003D0A04201D0A84203D122F44074CA6880
:1041000022434C6922F08002224302608A68C26224
:104110000A688262984201D1096901630121416103
:104120000169C90703D0016921F001010161F0BDF6
:10413000002C0140000400400008004010B501F0D0
:104140001F030121046A99408C430462016A9A406A
:104150001143016210BD10B5846842EA032224F4C1
:104160007F440A432243826010BD826822F07002BD
:104170000A4342F0070181607047000030B5036ACE
:10418000026A22F0010202624268846924F0730527
:104190000C682C4323F002058B682B430A4DA84280
:1041A0000BD123F00805CB6822F440722B434D69F4
:1041B00023F0040315438A692A43426084614968F5
:1041C0004163036230BD0000002C014030B5026A3B
:1041D000036A23F010030362436884690D6824F4C2
:1041E000E64444EA05248D6822F0200242EA0512E2
:1041F0000B4DA8420ED1CD6822F0800242EA051292
:104200004D6923F4406343EA85038D6922F040023F
:1042100043EA85034360846149688163026230BD7B
:10422000002C014030B5036A026A22F480720262F7
:104230004268C46923F4007324F073050C682C43AE
:104240008D6843EA05230C4DA8420ED1CD6823F4B6
:10425000006343EA05234D6922F4405242EA051205
:104260008D6923F4806342EA05124260C4614968A3
:10427000C163036230BD0000002C014030B5046A08
:10428000026A22F4805202624268C3690D6823F414
:10429000E64343EA05238D6824F4005444EA0534D8
:1042A000064DA84204D14D6922F4804242EA8512AB
:1042B0004260C36149680164046230BD002C014062
:1042C00010B5036A046A24F001040462846924F0CE
:1042D000F00444EA021423F00A020A4384610262F1
:1042E00010BD10B5036A046A24F0100404628469E6
:1042F00023F0A00324F4704444EA023243EA01119B
:104300008261016210BD10B5406A0021C185C1847F
:10431000FEF716FE10BD01680C3151E8002F22F4A3
:10432000907241E80023002BF5D10168143151E867
:10433000002F22F0010241E80023002BF5D1016B90
:10434000012909D101680C3151E8002F22F0100237
:1043500041E80023002BF5D1202180F842100021F4
:104360000163704708B590F84210222901D002205D
:1043700008BD82684FF480539A4201D1016921B18E
:10438000816A9A421BD04AB10AE00268816A526887
:10439000C2F308020A80816A891C08E0026972B1CE
:1043A0000268526802F07F020A70816A491C8162C9
:1043B000C18D491E0904090CC18503D01BE00268A8
:1043C0005268F1E70168CA6822F02002CA600168F9
:1043D000CA6822F48072CA6001684A6922F0010248
:1043E0004A61202180F8421000214163026B012ABA
:1043F00003D0FEF761FF002008BD016301680C31A6
:1044000051E8002F22F0100241E80023002BF5D1E3
:1044100001680A68D20602D50A6849680091818D50
:10442000FEF78DFDE7E7000070B5044600680169FE
:10443000E26821F44051114301612169A0680843F9
:10444000616908432168CA6841F20C639A430243D8
:10445000CA6020684169A26921F440711143416139
:104460001E492068884202D1FDF7BCFF01E0FDF73C
:10447000A9FF00EBC00101EB00126068642180001D
:10448000B2FBF0F3B3FBF1F36FF018067343B2FB2A
:10449000F0F5B2FBF0F605EB8305322303EB0515CF
:1044A000B5FBF1F5B6FBF1F605F0F00505EB0615E9
:1044B000B2FBF0F6B2FBF0F0B0FBF1F06FF01802D7
:1044C000504306EB800003EB0010B0FBF1F02168D5
:1044D00000F00F002844886070BD000000380140E3
:1044E00081628285C28500214164222180F84210C8
:1044F000016921B10168CA6842F48072CA6001682A
:104500004A6942F001024A610068C16841F0200135
:10451000C160002070472DE9F843984617460D46C4
:104520000446089E24E0701C22D0FDF757FCA0EB47
:104530000800B0421AD8CEB12068C168490717D523
:10454000802D15D0402D13D00168C94309070FD421
:1045500001680025406800902046FFF7DCFE082037
:10456000606484F840500120BDE8F8830320FBE735
:104570002068006835EA000004D00020B842D2D09C
:104580000020F1E70120F9E70148FEF7DFBC000059
:10459000743C00202DE9F041224D234C00276FF0A0
:1045A000040800BF07EB4706616955F82600401A6A
:1045B00045F8260040450FDA802045F82600FBF735
:1045C00013FE282190FBF1F201FB120105EB86009E
:1045D0000A3141600021816055F82600401D1428F1
:1045E0000ADA05EB8600816831B96269E168114435
:1045F000491EE160012181607F1C032FD2DBA0698D
:104600004FF4FA71401C90FBF1F2A06101FB120023
:10461000002804D160690A2801DA401C6061BDE805
:10462000F0810000743900203C3400200E490F4A0C
:10463000496BB1FBF2F30370B1FBF2F302FB131110
:1046400041F27072B1FBF2F34370B1FBF2F302FB83
:1046500013116422B1FBF2F38370B1FBF2F302FB9E
:10466000131181807047000058340020407E0500FF
:10467000FEE70907090E002804DB00F1E02080F8BE
:104680000014704700F00F0000F1E02080F8141DC6
:10469000704730380A2801D2012070470020704747
:1046A00070B5FFF701FAFFF723F908210E48FEF76E
:1046B000B1FB0D4C00252068C5630C212046FEF798
:1046C000A9FB206805640948FDF7ACF9FFF7DEF89F
:1046D000012207490748FEF7E1FD00F0C3F8BDE8F5
:1046E0007040FFF705B90000E43B0020043B0020C8
:1046F00060340020743C002030B589B0FFF7F8F832
:10470000FFF7ACF80446C0680090D4E9043221A158
:1047100001A802F26C725B1CFBF7A0FD01251023BF
:1047200001AA002114200095FFF791FB206800905A
:10473000D4E901321BA101A8FBF790FD182301AABF
:10474000142110200095FFF782FBA069194900EBA6
:10475000800001EB40042046FBF788FF40428021A7
:1047600001EBC000C0F34700082322463221009528
:10477000FFF76DFBFFF740FA69030F48FCF7BDFC3C
:1047800008B102F06FF84FF4FA70FDF71BFA09B0A8
:1047900030BD000025642D253032642D2530326473
:1047A00000000000253032643A253032643A25306A
:1047B0003264000090340020000C014010B5012844
:1047C00015D0022815D0032815D0042815D00528A7
:1047D00015D0062815D0072815D0082815D0092887
:1047E00015D00A2815D00B2817D102F0A5FB00F030
:1047F000F9F900F019FC00F005FD00F0D7FD00F01C
:10480000CDFE01F01BF801F0D9F801F05DFA02F0DD
:1048100017FCBDE81040FCF747BE10BD70B514464C
:104820000D4602F0E5FBBDB194B915E00A20FDF795
:10483000C9F929460948FBF707FF48B10849002094
:1048400008704FF480710548FBF761FF012070BDCF
:10485000641E2404240CE9D1002070BDA739002077
:104860005C3400202DE9FC4132225BA15BA0FFF704
:10487000D5FF14225CA15EA0FFF7D0FFFDF7AEFAD2
:104880000746FDF7ABFA01265B4D34464FF47A68D4
:1048900005EB8600002150F8040CCDE9000440230C
:1048A00080220846FFF785FAFFF7A6F96420FDF796
:1048B00089F9062E00D10026761CF6B2FDF78EFA95
:1048C000C01B4045E4D3012EE2D12868CDE90004A5
:1048D0000021402380220846FFF76BFAFFF78CF98E
:1048E0006420FDF76FF9C8223BA144A0FFF796FFB3
:1048F000A869CDE900040021402380220846FFF783
:1049000058FAFFF779F96420FDF75CF9E869CDE919
:1049100000040021402380220846FFF74AFAFFF7EF
:104920006BF96420FDF74EF914222BA13BA0FFF791
:1049300075FF286ACDE90004002140238022084643
:10494000FFF737FAFFF758F96420FDF73BF9686A7B
:10495000CDE900040021402380220846FFF729FA10
:10496000FFF74AF96420FDF72DF9C8221AA12EA0FD
:10497000FFF754FFA86ACDE90004002140238022FC
:104980000846FFF716FAFFF737F96420FDF71AF922
:10499000E86ACDE900040021402380220846FFF7A1
:1049A00008FAFFF729F96420FDF70CF932220AA171
:1049B00022A0FFF733FF286BCDE90004002140233C
:1049C00080220846FFF7F5F9FFF716F9BDE8FC412C
:1049D0004FF47A70FDF7F6B84F4B000041542B436B
:1049E000574D4F44453D32007265616479000000C7
:1049F00041542B52535400000834002041542B439F
:104A0000575341503D224F4F5053222C22313233C5
:104A10003435363738222C312C34000041542B43A6
:104A200049504D55583D310041542B434950534551
:104A3000525645523D312C383038300041542B43CA
:104A4000495053454E440000F0B58FB0FEF750FF7B
:104A50001F4C01251F4FEE031FA109A8E268FBF7B9
:104A6000FDFB082309AA232114200095FFF7EFF985
:104A700010231CA20A2114200095FFF7E8F9FFF784
:104A8000BBF8D4E90301884202D92061FFF79AFA02
:104A900017A101A82269FBF7E1FB082301AA322133
:104AA0000A200095FFF7D3F9FFF7A6F831463846FC
:104AB000FCF723FB002809D14FF400611148FCF7F3
:104AC0001CFB0028C8D002F01DF9C5E70FB0F0BDEF
:104AD0003C3400200008014053636F72653A202582
:104AE00064000000596F752077696E212121000054
:104AF000486967686573742073636F72653A20252F
:104B000064000000000C0140144800240168CC63DC
:104B100000680464124D4FF40066124FFFF7ECFD7D
:104B2000687998B16C7110A11148FBF78DFD68B1DF
:104B30000F482C714FF480710F30FBF7E8FD0C48E3
:104B40000F210F30FBF7E3FD02F07AFA31463846C9
:104B5000FCF7D3FA0028E1D002F0D4F8E43B0020BF
:104B600058340020000C01403C776966693E000023
:104B70009839002008B5FDF731FA1848C16941F0AD
:104B80008051C161C16901F080510091C16941F05A
:104B90000061C161C06900F000600090FDF7AEFAED
:104BA000FFF746FAFEF7E4FCFEF734FDFEF73AFEA7
:104BB000FEF78EFCFEF78EFDFEF7B2FCFEF758FD09
:104BC000FEF7E4FDFEF746FD0548FDF711FFFFF790
:104BD00067FD00BFFFF798FFFCE7000000100240F0
:104BE0009C3B002008B5FEF783FE0124142110230E
:104BF000D6A208460094FFF72AF9FEF7FDFF4FF40E
:104C0000FA652846FCF7DEFFFEF772FE142110233A
:104C1000D1A208460094FFF71AF9FEF7EDFF2846E7
:104C2000FCF7D0FFFEF764FE1023CFA214210A2068
:104C30000094FFF70CF90C23CEA228210A2000943F
:104C4000FFF705F9FEF7D8FFA146E703CE4EDFF8E0
:104C50003CA3CF4D4FF0640B4FF40068002439465D
:104C60003046FDF7B1F8E8B1DAF80000C463FEF7AA
:104C70003FFE1023BCA214210A20CDF80090FFF7BC
:104C8000E6F80C23BBA2CDF8009028210A20FFF7FC
:104C9000DEF8FEF7B1FF4146BE48FCF72EFA0028C9
:104CA00033D112E0DAF80010C1F83CB0FEF720FE74
:104CB0001023B9A214210A20CDF80090FFF7C7F8FD
:104CC0000C23B9A2CDF80090DFE768790028C6D0A0
:104CD0006C71BAA1BC48FBF7B7FC0028BFD0BA483A
:104CE0002C714FF480710F30FBF711FDB6480F2186
:104CF0000F30FBF70CFD3222B4A1B5A0FFF78EFDFB
:104D00003222B2A1B6A0FFF789FDFEF7F1FD142112
:104D10001023B5A20846CDF80090FFF798F8FEF7EB
:104D20006BFF4FF4FA60FCF74DFFFEF7E1FD102337
:104D3000B0A214210A20CDF80090FFF788F80C23C8
:104D400099A228210A20CDF80090FFF780F8FEF7FD
:104D500053FF012211468F48FDF73BF85646DFF816
:104D6000288239464046FDF72FF8F8B13168C1F87E
:104D70003CB0FEF7BDFD10237BA214210A20CDF824
:104D80000090FFF764F80C2387A2CDF8009028214B
:104D90000A20FFF75CF8FEF72FFF4FF4006A514638
:104DA0007C48FCF7AAF9002831D110E03068C463D0
:104DB000FEF79EFD102378A214210A20CDF8009062
:104DC000FFF745F80C236BA2CDF80090DFE7687978
:104DD0000028C4D06C7179A17B48FBF735FC002812
:104DE000BDD079482C714FF480710F30FBF78FFCE8
:104DF00075480F210F30FBF78AFC322273A174A093
:104E0000FFF70CFD322271A175A0FFF707FDFEF739
:104E10006FFD4FF001091421102373A20846CDF84D
:104E20000090FFF714F8FEF7E7FE4FF4FA60FCF786
:104E3000C9FE3068C463FEF75BFD10234AA214214B
:104E40000A20CDF80090FFF702F80C2349A2282190
:104E50000A20CDF80090FEF7FAFFFEF7CDFE4FF0E6
:104E6000000939464046FCF7AFFF002840D1322008
:104E7000FCF7A8FE39464046FCF7A6FF002837D1CC
:104E8000B9F1000F17D081463068C463FEF730FDDA
:104E900001200090102334A214210A20FEF7D7FF2E
:104EA00001200C2333A2009028210A20FEF7CFFF17
:104EB000FEF7A2FE16E031684FF00109C1F83CB0E0
:104EC000FEF716FD01200090102327A214210A20CE
:104ED000FEF7BDFF01200C2333A20090E4E70A2077
:104EE000FCF770FE39464046FCF76EFF0028F6D00E
:104EF00051462848FCF701F918B13068C46301F045
:104F000001FF68790028ACD06C713EA12E48FBF7F8
:104F10009BFB0028A5D02C482C714FF480710F30DA
:104F2000FBF7F5FB28480F210F30FBF7F0FB32228F
:104F300026A136A0FFF772FC322224A137A0FFF78A
:104F40006DFC3068C46302F07BF88AE74C6F6164E3
:104F5000696E672E2E2E0000427574746F6E206D80
:104F60006F646521000000005072657373204F4B21
:104F700020746F007475726E206F6E2074686520E7
:104F80006C6967687400000000080140E43B002081
:104F900058340020000C014052656C656173652037
:104FA0004F4B20746F0000007475726E206F666640
:104FB00020746865206C6967687400003C737769C9
:104FC0007463683E00000000983900204F4B0000D9
:104FD00041542B43495053454E443D302C3400003E
:104FE0004F4B210A000000005377696368696E67C0
:104FF0002E2E2E005072657373206B657920746FAE
:10500000000000003C657869743E000041542B4369
:10501000495053454E443D302C3131004578697438
:10502000696E672E2E2E0A00002508B52C462F46E5
:105030002E46FEF75DFC4FF001081421102354A208
:105040000846CDF80080FEF702FFFEF7D5FD4FF4CD
:10505000FA60FCF7B7FDFEF74BFC142110234FA2BA
:105060000846CDF80080FEF7F2FEDFF84091AA4630
:10507000D9F80020C2F83CA0D9F80010C1F840A02F
:10508000FEF7BAFDDFF828B1DFF82881FCF7A6FEAD
:10509000D8F80C20431B934206D3CFB15FF0000732
:1050A000D9F80020D7630546D8F81010021B8A42B1
:1050B00006D37EB15FF00006D9F800100E640446F6
:1050C0004FF400515846FCF718F828B100F012FFD1
:1050D0006427E5E76426EFE74FF400615846FCF7E4
:1050E0000CF848B1D9F80020C2F83CA0D9F800006B
:1050F000C0F840A001F006FE98F805100029C5D0C0
:1051000088F805A02CA12E48FBF79EFAB8B12C48D0
:1051100088F804A04FF480710F30FBF7F8FA2848A4
:105120000F210F30FBF7F3FA322226A126A0FFF75A
:1051300075FB322223A128A0FFF770FBC6E728A148
:105140001F48FBF781FA0028A0D01D4888F804A06A
:105150004FF480710F30FBF7DAFA19480F210F3046
:10516000FBF7D5FAD9F80020C2F83CA0D9F8000026
:10517000C0F840A0322213A11BA0FFF74FFB322240
:1051800010A11DA0FFF74AFB01F05AFF7EE70000C7
:105190004C6F6164696E672E2E2E00005065726937
:1051A0006F64206D6F64652100000000E43B002007
:1051B000000C0140583400203C7365743E00000030
:1051C000983900204F4B000041542B434950534520
:1051D0004E443D302C3400004F4B210A00000000AB
:1051E0003C657869743E000041542B434950534557
:1051F0004E443D302C31310045786974696E672E1C
:105200002E2E0A0008B5FEF773FB0124142110238B
:1052100048A208460094FEF71AFEFEF7EDFC4FF494
:10522000FA60FCF7CFFCFEF763FB14210C2344A2C9
:1052300008460094FEF70BFEFEF7DEFC0021454811
:10524000FDF7E8FD6703DFF81081424D434C4FF056
:1052500000094FF4807A0026286846636069FCF7ED
:10526000B1FC39464046FBF748FF68B9761C642E0E
:10527000F2DB6326286846636069FCF7A3FC3946C5
:105280004046FBF73AFF08B100F0D2FF761EF1D599
:105290004FF400614046FBF730FF50B129683220DF
:1052A000486300212B48FDF703FEFEF721FB01F0C8
:1052B00029FD60790028CED04E4684F8059028A1BB
:1052C0002948FBF7C1F9B0B1274884F8049051464A
:1052D0000F30FBF71CFA24480F210F30FBF717FAA9
:1052E000322222A122A0FFF799FA32221FA124A084
:1052F000FFF794FAC8E724A11B48FBF7A5F900289B
:10530000A9D01948267151460F30FBF700FA16480C
:105310000F210F30FBF7FBF9322214A11CA0FFF77D
:105320007DFA322211A11EA0FFF778FA01F088FE63
:1053300091E700004C6F6164696E672E2E2E0000AD
:10534000427265617468696E67206C696768742170
:1053500000000000E43B0020000C01405834002015
:105360003C7365743E000000983900204F4B0000EC
:1053700041542B43495053454E443D302C3400009A
:105380004F4B210A000000003C657869743E000024
:1053900041542B43495053454E443D302C3131004C
:1053A00045786974696E672E2E2E0A0008B5FEF7DF
:1053B0009FFA0124142110235AA208460094FEF7F4
:1053C00046FDFEF719FC4FF4FA60FCF7FBFBFEF715
:1053D0008FFA14210C2356A208460094FEF737FDDD
:1053E000FEF70AFC00215748FDF714FD554E322008
:1053F00031684863544F554C4FF4804A4FF4004B8A
:105400004FF05F084FF00509002551463846FBF77D
:1054100087FE50B1A069401DA061642802D34046B8
:10542000C4F8188001463068416359463846FBF796
:1054300077FE40B1A069401FA06102D14846C4F880
:105440001890316848634FF400613846FBF755FE09
:1054500028B100213B48FDF72BFD01F053FC60799A
:105460000028D2D065713AA13A48FBF7EDF890B127
:10547000384825714FF480710F30FBF748F93548F3
:105480000F210F30FBF743F9A069401DA06164288C
:1054900018D3404615E030A12E48FBF7D5F8F0B1FF
:1054A0002C4825714FF480710F30FBF730F92948F3
:1054B0000F210F30FBF72BF9A069401FA06101D12C
:1054C0004846A06131684863322224A124A0FFF736
:1054D000A5F9322221A126A0FFF7A0F995E726A180
:1054E0001C48FBF7B1F800288FD01A4825714FF4FB
:1054F00080710F30FBF70BF916480F210F30FBF7C7
:1055000006F900210F48FDF7D3FC322213A11CA09D
:10551000FFF784F9322211A11DA0FFF77FF901F0F6
:105520008FFD72E74C6F6164696E672E2E2E00004E
:105530004368616E6761626C65206C69676874219D
:1055400000000000E43B0020000C01405834002023
:105550003C2B3E00983900203C2D3E004F4B000074
:1055600041542B43495053454E443D302C340000A8
:105570004F4B210A000000003C657869743E000032
:1055800041542B43495053454E443D302C3131005A
:1055900045786974696E672E2E2E0A001CB50022AC
:1055A00001217E48FCF715FCFEF7A2F90124142125
:1055B00010237BA208460094FEF749FCFEF71CFB73
:1055C0004FF4FA60FCF7FEFAFEF792F90C2377A28B
:1055D0000A2114200094FEF73AFCFEF70DFB7748F1
:1055E000FBF7C2FFDFF8D8A1DFF8D8810C254FF018
:1055F00000097248FCF716FA4FF0FF316F48FCF7CC
:1056000073F96E48FCF79AF883460C236EA21E21AC
:1056100014200094FEF71BFCCDE9005404235A46E5
:105620001E215020FEF78EFB0C236AA2322114208B
:105630000094FEF70CFC584602F0E4F8684901F0CB
:10564000E3FF01F0B5FF4FF06632664B01F0B2FEAA
:1056500001F07EFE0746644902F0E8F802F096F891
:105660004FF47A7190FBF1F201FB1206384602F01A
:10567000A9F8CDE900540246012332214B20FEF760
:1056800061FB0C2359A2322150200094FEF7DFFB6E
:10569000CDE900540323324632215620FEF752FB57
:1056A000FEF7AAFADAF82C1056468B4504D9D8F83A
:1056B00000006421C16303E0D8F80010C1F83C90F9
:1056C0004FF4FA70FCF77EFA344F4FF4006138461D
:1056D000FBF713FD40B1002201213846FCF779FBAE
:1056E000FEF706F901F00EFB4FF400513846FBF7C8
:1056F00004FD20B1D8F80010C1F83C904CE070795E
:1057000000283FF476AF4F4686F8059038A13A4816
:10571000FAF79AFFE8B1384837714FF480710F30CB
:10572000FAF7F5FF34480F210F30FAF7F0FFD8F8F9
:105730000000C763FEF7DCF8322230A130A0FFF78B
:105740006DF832222DA132A0FFF768F801F078FC45
:105750004FE732A12848FAF777FF0028F8D026480B
:105760004C468AF804904FF480710F30FAF7CFFF5F
:1057700021480F210F30FAF7CAFFD8F80000C463A0
:10578000FEF7B6F832221DA126A0FFF747F8322215
:105790001AA128A0FFF742F801F066F9000C0140B9
:1057A0004C6F6164696E672E2E2E0000566F6C740C
:1057B000616765206C69676874210000D43A002035
:1057C00058340020E43B00204144432056616C756E
:1057D000653A0000566F6C746167653A000000001E
:1057E00000F07F4566660A4000007A442E00000003
:1057F0003C657869743E0000983900204F4B0000EA
:1058000041542B43495053454E443D302C313100D7
:1058100045786974696E672E2E2E0A003C73657494
:105820003E00000041542B43495053454E443D3007
:105830002C3400004F4B210A00000000434E08B5F5
:1058400030680025C563FEF753F8012414211023A6
:105850003FA208460094FEF7FAFAFEF7CDF94FF49E
:10586000FA60FCF7AFF9FEF743F814210C233BA2D2
:1058700008460094FEF7EBFAFEF7BEF94FF4005825
:10588000394F3A4C4FF48079FBF7BAFD4146384620
:10589000FBF733FC10B100BF00F022FA2078E16979
:1058A000884203D931686420C86301E03068C56369
:1058B0004FF400613846FBF720FC28B1FEF718F8DA
:1058C0003068C56301F01EFA60790028DCD065718C
:1058D00027A12948FAF7B8FEA8B1274825714946FB
:1058E0000F30FAF714FF24480F210F30FAF70FFF9B
:1058F000322222A122A0FEF791FF32221FA124A072
:10590000FEF78CFFC8E724A11B48FAF79DFE00288C
:10591000BAD01948257149460F30FAF7F8FE1648F3
:105920000F210F30FAF7F3FEFDF7E2FF3068C56391
:10593000322212A11AA0FEF771FF32220FA11CA081
:10594000FEF76CFF01F07CFB9EE70000E43B0020CB
:105950004C6F6164696E672E2E2E000054656D7069
:10596000206C696768742100000C014058340020E5
:105970003C7365743E000000983900204F4B0000D6
:1059800041542B43495053454E443D302C34000084
:105990004F4B210A000000003C657869743E00000E
:1059A00041542B43495053454E443D302C31310036
:1059B00045786974696E672E2E2E0A001CB5002189
:1059C0004348FDF727FA424E322031684863FDF71D
:1059D0008FFF0124142110233EA208460094FEF7F5
:1059E00036FAFEF709F94FF4FA60FCF7EBF8FDF729
:1059F0007FFF14210C233AA208460094FEF727FAF1
:105A00000C233BA2282114200094FEF720FAFEF775
:105A1000F3F83A4D4FF00C084FF0FF3B40F6FF799A
:105A20004FF0000A59463648FBF75EFF3448FBF753
:105A300085FE0746CDE9008404233A4628215020FC
:105A4000FEF780F9FEF7D8F864204743B7FBF9F07A
:105A5000316848634FF4FA70FCF7B4F84FF4006112
:105A60002848FBF74AFB38B1FDF742FF00211848F0
:105A7000FDF71EFA01F046F968790028D2D05746A2
:105A800085F805A020A12248FAF7DEFD0028C9D03C
:105A90001F482F714FF480710F30FAF738FE1C4801
:105AA0000F210F30FAF733FEFDF722FF00210848DF
:105AB000FDF7FEF9322217A117A0FEF7AFFE322242
:105AC00014A119A0FEF7AAFE01F0BAFAAAE7000095
:105AD000E43B00204C6F6164696E672E2E2E00003F
