:020000040800F2
:10000000F00F0020DD010008AF3600089F31000826
:10001000AD360008B9100008454300080000000094
:10002000000000000000000000000000E53C0008A7
:10003000D112000800000000E53B0008513D000817
:10004000F7010008F7010008F7010008F7010008B0
:10005000F7010008F7010008F7010008F7010008A0
:10006000F7010008F7010008F7010008F701000890
:10007000F7010008F7010008F7010008F701000880
:10008000F7010008F7010008F7010008F701000870
:10009000F7010008F7010008F7010008F701000860
:1000A000F7010008F7010008F7010008F701000850
:1000B000F7010008F7010008F7010008F701000840
:1000C000F7010008F7010008F7010008F701000830
:1000D000F7010008A1420008F7010008F701000835
:1000E000F7010008F7010008F701000800F002F826
:1000F00000F04AF80AA090E8000C82448344AAF178
:100100000107DA4501D100F03FF8AFF2090EBAE875
:100110000F0013F0010F18BFFB1A43F0010318473B
:100120003892000058920000103A24BF78C878C175
:10013000FAD8520724BF30C830C144BF04680C60ED
:10014000704700000023002400250026103A28BF35
:1001500078C1FBD8520728BF30C148BF0B60704739
:10016000642900F09780002070471FB500F043FA23
:1001700000F0ECFE04000020002106F051FE401CBF
:1001800060601FBD10B510BD00F0A4FE1146FFF762
:10019000ECFF04F0DBFA00F0CBFE03B4FFF7F2FF54
:1001A00003BC00F019FF00000B49D1F800C04A68F9
:1001B0005CF8043B1068184442F8040B8C4528BFD7
:1001C000A1F1DC0C8A4228BFA1F1DC02C1F800C019
:1001D0004A6020F0004070475809002009488047D5
:1001E00009480047FEE7FEE7FEE7FEE7FEE7FEE719
:1001F000FEE7FEE7FEE7FEE704480549054A064B31
:1002000070470000DB3D0008ED000008F009002009
:10021000F00F0020F00B0020F00B00200FB41CB5F5
:10022000074B06AA7B4469460090059800F0D5FB71
:100230000020694600F0E4FB1CBC5DF814FB0000E4
:10024000D907000070B5044685690068C10601D56C
:10025000302600E02026C00707D070BDD4E9012178
:1002600030469047206A401C20626D1EF6D570BD56
:1002700070B5044685690078C00707D170BDD4E920
:10028000012120209047206A401C20626D1EF6D577
:1002900070BD00002DE9F041064600241068752964
:1002A000314616A510D0AFF30080002802DA404294
:1002B00013A507E031688A0701D512A502E04907B6
:1002C00004D511A5012401E0AFF3008000210A222A
:1002D00006F1240709E0B0FBF2FCB0FBF2F302FBED
:1002E0001C00303078541846491C0028F3D12346AE
:1002F0002A463046BDE8F04100F011BB0000000086
:100300002D0000002B000000200000002DE9F05F10
:10031000894604464FF0000ADFF824B1FB44C0F8D8
:1003200020A02046E168884700287DD0252806D0F7
:10033000D4E901219047206A401C2062F1E70025A2
:100340005F462046E16888472028064607DB312EB5
:1003500005D2B81910F8200C08B10543F1E7A80739
:1003600001D525F00405C4F81CA00027C4F818A086
:100370002A2E09D0304603F0F6FF38B304EB870885
:10038000303EC8F8186019E059F8041B204604EB09
:1003900087029161E1688847012F064618D1E0691C
:1003A000002820DA25F020051DE0D8F8180000EB21
:1003B000800006EB40003038C8F818002046E1689D
:1003C0008847064603F0CFFF0028EED1012F0AD060
:1003D0002E2E08D12046E16888477F1C0646022F52
:1003E00045F02005C4DBA069002803DA404245F04F
:1003F0000105A061E80701D025F01005A6B1A6F11E
:100400004100192802D8203645F400654A46314695
:10041000204625604D46FFF7A3FE60B1012807D0B6
:10042000ED1D25F0070000E007E000F1080978E77E
:1004300005F1040975E730467AE7206ABDE8F09FC8
:10044000189000000FB400B58DB010A9099000916C
:100450000B904FF0FF300A9000200C900648784433
:100460000690064878446A4607900F9909A800F05C
:10047000E1FA0DB05DF814FBF30500000B06000077
:100480002DE9FF5F1D464FF0FF3B91464FF00008FE
:100490005F46D5E90146A96901987F1C8847296A0A
:1004A000824688470028F6D1BAF1FF3F0CD0002ED3
:1004B00024F4C06419DD600614D5BAF12B0F09D0FD
:1004C000BAF12D0F0ED103E0584604B0BDE8F09FFD
:1004D00044F48064A96901987F1C8847761E82468F
:1004E000002E02DDBAF1300F03D0B9F1000F26D093
:1004F00032E0A969761E01987F1C44F40074884795
:10050000002E824605DDBAF1780F06D0BAF1580FF9
:1005100003D0B9F1000F10D01EE0B9F1000F02D0E6
:10052000B9F1100F18D1A969761E01987F1C24F427
:10053000007488478246102002E0082000E00A206C
:10054000814609E0A96908FB0908761E01987F1C0D
:1005500044F4007488478246002E05DD4946504623
:1005600000F053FA0028EDDAE96901988847A00500
:1005700002D46FF00100A8E7E00725D1600613D58B
:10058000600502D5C8F1000000E0404629680A1D58
:100590002A600968220501D5087015E0220701D5F7
:1005A000088011E008600FE02868011D29600068DC
:1005B000210502D580F8008006E0210702D5A0F8C9
:1005C000008001E0C0F8008038467EE70B4910B596
:1005D000A1F17C020A4CC2E93712372106E000EB98
:1005E000104342F82130074B00FB03400B1EA1F1E2
:1005F0000101F4DC10BD0120E8E70000F80800204C
:10060000E119D666CD0D010030B505460B462A46E8
:1006100013F8014B12F8010B08B1A042F8D01CB13D
:10062000002802D06D1CF1E7284630BD10B5431CF0
:1006300002E010F8011B71B18107FAD14FF00132CD
:1006400002C88C1A8C4314EAC211F9D0C01A0A06E7
:1006500003D0C01E10BDC01A10BD0A0401D0801EF8
:1006600010BD0902FCD0401E10BD10B5203AC0F0EC
:100670000B80B1E81850203AA0E81850B1E81850A3
:10068000A0E81850BFF4F5AF5FEA027C24BFB1E8E0
:100690001850A0E8185044BF18C918C0BDE8104051
:1006A0005FEA827C24BF51F8043B40F8043B08BF5A
:1006B0007047D20728BF31F8023B48BF11F8012B21
:1006C00028BF20F8023B48BF00F8012B70474FF0CD
:1006D00000020429C0F0128010F0030C00F01B800F
:1006E000CCF1040CBCF1020F18BF00F8012BA8BF1D
:1006F00020F8022BA1EB0C0100F00DB85FEAC17CE1
:1007000024BF00F8012B00F8012B48BF00F8012B93
:1007100070474FF0000200B51346944696462039C4
:1007200022BFA0E80C50A0E80C50B1F12001BFF4AA
:10073000F7AF090728BFA0E80C5048BF0CC05DF810
:1007400004EB890028BF40F8042B08BF704748BF5E
:1007500020F8022B11F0804F18BF00F8012B7047D2
:10076000014900F097B900006009002010B5036846
:100770001C1404EB21449BB289B2194494FBF2F39C
:1007800002FB134394FBF2F401EB034393FBF2F1FE
:1007900002FB113193FBF2F301E05B1E11440029CF
:1007A000FBDB016003EB044010BDF0B504464FF0E5
:1007B000FF3585B00068049060680290A0680390DF
:1007C000E068019020690090666906F18040B0F110
:1007D000004F7CD83C22002104A8FFF7C7FF3C2231
:1007E000014602A8FFF7C2FF1822014603A8FFF73F
:1007F000BDFF411E40F2B55201A8FFF7B7FF0C2222
:10080000074668460021FFF7B1FF414B00EB870028
:10081000304400267B4411E0511A01910099491C93
:100820000229009102D00C2908D105E0810705D0EA
:100830000199491C019101E0401C00960099019A20
:10084000595C9142E8DD0099012906D11C2A04D1A6
:10085000810702D00221CDE90016A0F146018B29C3
:100860003CD2DDE90061002202E09F5C521C394469
:10087000B242FADB012E02DD820700D0491E40F2AF
:10088000B55340F26D16C21700EB927292105A43A4
:1008900000F0030303FB062283070A4400D1521E23
:1008A000039E02EB4203049F06EBC303029EC3EBCD
:1008B000031306EB8303174E33441E149BB2C6EB9F
:1008C0000616C3EB0313B60007EB830300E005E055
:1008D00006EB134666F31F43360C02D0284605B0DC
:1008E000F0BD80C4029E40C4039E40C4019E761C9D
:1008F00044F80C6B009E44E902600720521C92FBF6
:10090000F0F600FB162084E823001846E7E7000015
:10091000318B0000A039CEFD7047704770472DE93C
:10092000F0470D4699469246044600F124080168B6
:10093000880604D5E06921F01001216000E0012063
:10094000A84201DD471B00E00027A1697A1902EBEC
:100950000900081AA0612078C00602D42046FFF7DB
:1009600071FC002608E0D4E901211AF8060090473E
:10097000206A401C761C20624E45F4DB2078C006BD
:100980000AD52046FFF75EFC06E0D4E901213020BD
:100990009047206A401C2062381EA7F10107F4DC52
:1009A00007E0D4E9012118F805009047206A401CAF
:1009B0002062281EA5F10105F3DC2046FFF758FC54
:1009C0002078000602D50220BDE8F0870120FBE771
:1009D00001694A1C02610878704700B58FB0CDE903
:1009E00001310021059105497944CDE903101146F3
:1009F0006846FFF78BFC0FB000BD0000E5FFFFFF6E
:100A00000A6802F8010B0A6070473A2800D23038B1
:100A100020F02002412A01D3A2F13700884201D3FD
:100A20004FF0FF30704700000268114413780160F6
:100A300018467047D16005497944516104497944A9
:100A4000116200211161114600F08AB8EDFFFFFF2D
:100A50000B010000426842B1016811F8013B23B16B
:100A6000521EC0E90012184670470121C160881E5D
:100A7000704742685AB1C368016843B983688B42C2
:100A800005D0491E521CC0E90012002070474FF0EB
:100A9000FF30704770B50C46016800204A1C3ED0FC
:100AA0003C22B1FBF2F302FB1313B1FBF2F1236022
:100AB000B1FBF2F302FB1313B1FBF2F118226360F6
:100AC000B1FBF2F302FB1313B1FBF2F146F2E03299
:100AD0000A440721A360B2FBF1F301FB132140F2AA
:100AE000B553B2FBF3F5A161B2FBF3F103FB1522A1
:100AF0008900B2F5B77F08D39B10521EB2FBF3F505
:100B00002944B2FBF3F503FB15220F4BE26161614F
:100B100089077B440CD03B2A0AD3521C08E02C21C5
:100B20002046FFF7F6FD0120E0600AE0521A401C63
:100B3000195C9142FAD9521CC4E903204FF0FF30EE
:100B40002062204670BD00003388000010B50446C6
:100B500000F0E6F90068005D00F0010010BD000043
:100B60002DE9F34F4FF0000A0C4656468DB0012098
:100B70000C9001F10C000B9062690B9801219047D9
:100B8000051E2DD0252D2CD0216A8847C0B1626961
:100B90000B9801219047216A88470028F7D16269A4
:100BA000411E0B98904700E0761CA1690D9888477C
:100BB000216A88470028F7D1E1690D988847DBE76B
:100BC000A1690D988847A842074601D1761CD3E752
:100BD000E1690D9888477F1C02D1BAF1000F6FD0F0
:100BE0006CE162690B9800273D46394690472A28F8
:100BF00004D162690B98012190470125DFF8D0826A
:100C000062690B9801219047A0F130010A290AD2AC
:100C10004745E5DC07EB870100EB4107303FDFD4B8
:100C200045F01005ECE7E90601D46FF000476C28A9
:100C30000AD04C2814D0682815D06A280DD0742802
:100C40001CD07A281AD01DE062690B9801219047C8
:100C50006C2802D045F0040514E045F002050DE0D3
:100C600045F020050AE062690B9801219047682849
:100C700002D045F0080505E045F4006562690B986F
:100C800001219047C4E9015765283DD019DC582857
:100C90007AD00CDC452837D004DC252826D0412822
:100CA0009ED131E046282FD0472899D12CE05B28EF
:100CB00077D0612828D063287CD0642823D15AE0DB
:100CC000F7E06F2848D008DC66281DD067281BD0C5
:100CD000692821D06E2816D127E0702845D07328C6
:100CE00068D0752847D078280DD14DE0A1690D98BE
:100CF0008847252805463FF469AFE1690D98884784
:100D00006D1C3FF46AAFD9E00D9923466A466FF037
:100D10000100AFF30080C6E045F0400023464FF0ED
:100D200000026060A80736D43EE0E8077FF447AFD2
:100D30002068011D21600068290501D506701BE7A8
:100D4000290701D5068017E7A90703D5F117C0E9E0
:100D5000006111E706600FE745F0400023464FF0C1
:100D600008026060A80716D41EE040F60E0125EACE
:100D70000100606016E045F0400023464FF00A0293
:100D80006060A80707D40FE045F040006060A80746
:100D900008D5234610220D996FF00100AFF30080B3
:100DA00081E007E0102223460D996FF00100FFF764
:100DB00067FB78E04FF0000963284F46C8464B4672
:100DC000CB4602D05B2807D039E02079C00601D499
:100DD0000120A060012732E06269D4F80CB00B98C2
:100DE000012190475E2807D14FF001094946626909
:100DF000D4F80CB00B989047216939B900210A4604
:100E000003AB43F82120491C0829FADBD8B3216938
:100E100049B308F1010862690B98012190475D28E8
:100E2000F4D1B9F1000F09D0002003A951F8202016
:100E3000D24341F82020401C0828F7DB03AB20698F
:100E4000002820794FEA40701ED05B462246CDF83C
:100E50000080CDE901970D9900286FF0010020DA9C
:100E6000AFF300801FE0C11703AA00EBD1614B1163
:100E700021F01F0102EB8302411A13680120884010
:100E800003431360C7E719E00D99224600286FF06D
:100E90000100009702DAAFF3008004E0AFF30080B6
:100EA00001E0AFF3008000280ADA401C06D10C985C
:100EB00020B14FF0FF300FB0BDE8F08F5046FAE799
:100EC000E90701D10AF1010A064400200C9053E61B
:100ED000CCCCCC0C754600F035F8AE460500694622
:100EE000534620F00700854618B020B5FFF784F977
:100EF000BDE820404FF000064FF000074FF000081B
:100F00004FF0000B21F00701AC46ACE8C009ACE89B
:100F1000C009ACE8C009ACE8C0098D4670470000C4
:100F200010B500F013F8001D10BD00BFF55E000005
:100F300010B50446AFF300802046BDE81040FFF72F
:100F40002CB90000004870478C0900200048704709
:100F5000AC090020704700004FF0013C50F8042B12
:100F600051F8043B9A4221D1A2EB0C03934313EABC
:100F7000CC1317D150F8042B51F8043B9A4215D1E9
:100F8000A2EB0C03934313EACC130BD150F8042BC0
:100F900051F8043B9A4209D1A2EB0C03934313EAA4
:100FA000CC13DBD04FF00000704700BFD01A01BA5D
:100FB000B1FA81F101F0180122FA01F0CB40C1F140
:100FC0002001DBB2C0B2C01A2CFA01F3D11A91434E
:100FD00011EAC311E6D1704701491820ABBEFEE704
:100FE0002600020070B5044600688168C943C9073D
:100FF00017D1816821F00101816000F0B1FE054642
:101000000AE000BF00F0ACFE401B022804D92068B3
:101010008068C043C00706D020688068C043C0070E
:10102000F0D0002070BDA06A40F01000A062E06A1D
:1010300040F00100E062012070BD0000F8B500261C
:101040000446009600688168C943C9072DD08168AD
:1010500041F001018160164816490068B0FBF1F0CB
:1010600000E0401E00900028FBD100F079FE05460C
:1010700016E000BF00F074FE401B022810D9206863
:101080008068C043C0070BD0A06A40F01000A06287
:10109000E06A40F00100E06284F824600120F8BDBD
:1010A00020688068C043C007E4D10020F8BD00007C
:1010B000B000002040420F00FEE770B50C46054628
:1010C00000F044FE40B94FF47A7000F03DFD214637
:1010D000284600F03BFE08B1002070BD012070BD25
:1010E00070B50C46054600F031FE38B9642000F0BA
:1010F0002BFD2146284600F029FE08B1002070BDD6
:10110000012070BD30B50F4B1A68402A13D20E492A
:101110009C68002000EB400351F82350142D0CDA9A
:101120006D1D142D09DD01EB83035B68934202DC26
:101130002344934201DA012030BD401C0328E9DB3F
:10114000002030BD08000020340500201FB500201D
:10115000019002904FF48070009003200390694644
:10116000014800F003FD1FBD000801401FB500202D
:1011700002904FF4807000900120019003200390B2
:101180006946024800F0F2FC1FBD00000008014063
:101190002DE9F0410024FFF7E9FF2B4D4FF4807655
:1011A00000223146284600F0D6FD44F2506000F09F
:1011B00090F801223146284600F0CDFD142000F0C1
:1011C00088F8FFF7C3FF142000F083F83146284663
:1011D00000F0BCFD1D4F28B126E0012000F079F899
:1011E000641CE4B23146284600F0B0FD08B9642C16
:1011F000F3D3002404E0012000F06BF8641CE4B297
:101200003146284600F0A2FD012801D1642CF2D31A
:101210005FF0000400F01CF83855641CE4B2052CA3
:10122000F8D3322000F055F838787978FA78084405
:10123000B978114408443979814202D10120BDE8CE
:10124000F0810020FBE700000008014000000020C2
:101250002DE9F0470024254626464FF48079DFF833
:101260006C8004E0012000F034F86D1CEDB24F46B4
:101270004946404600F06AFD08B9642DF2D30025C6
:10128000282000F026F8B9463946404600F05EFDB9
:10129000012801D0002706E0012704E0012000F02A
:1012A00018F86D1CEDB24946404600F04FFD01288C
:1012B00001D1642DF2D36006761C0025F6B247EA10
:1012C0001064082ED3D32046BDE8F0870008014003
:1012D000704708B500EBC00020F06040009000BFF0
:1012E0000098411E0091FAD208BD00002DE9FF4789
:1012F00002F0DEF91E4E03221420317802F0EEF9DE
:10130000DFF8708000244FF0010900BF04EB4405B2
:1013100058F82500421E7F2A15D808EB8507CDF81E
:101320000090C2B23B79C0B2002102F039FACDF888
:1013300000903979337A18F825001944C2B2C9B23D
:101340003F2302F02DFA641C032CDFDB0AA101A865
:10135000F268FEF763FF0021082301AA0846CDF8D2
:10136000009002F006FC02F027FBBDE8FF870000BA
:10137000080000203405002053636F72653A202571
:10138000640000007CB5FFF703FF174D174C287869
:101390006070C82000F0D8FBFFF7FAFEA878207034
:1013A00001250C26CDE90065022362782821302032
:1013B00002F0A8FB0C23252228214020009502F0F2
:1013C0002FFBCDE90065022322783221302002F084
:1013D00099FB0C23432232214020009502F020FB90
:1013E000BDE87C4002F0E8BA0000002024000020A4
:1013F00072B6FEE700251E260B4C022700F05CF8B3
:1014000002F054FFFFF772FFFFF77CFE40B103F0DC
:1014100007F9C4E9006501F01DFFE560C4E9057541
:10142000322000F091FBE9E70800002008B502F047
:101430003FF90124102316A200211420009402F089
:1014400098FB0C2315A21E210A20009402F091FBA8
:1014500002F0B2FAE503164C02E00A2000F074FB39
:101460002946204600F072FC0028F6D02946204686
:1014700000F06CFC0028F9D102F01AF902F09CFA95
:1014800002F020FC0B49086101F0E4FEFFF7B2FF17
:10149000466C6170707920426972640050726573A5
:1014A00073204F4B20746F207374617274000000BE
:1014B000000801400800002010B50A4C6068401C7C
:1014C00060602168084420604FF40041064800F045
:1014D0003DFC10B96FF002006060BDE8104002F002
:1014E000E5BE00000800002000080140F8B5002516
:1014F0000446009590F8240001280BD0012084F8C0
:1015000024002046FFF76EFD2046FFF797FD0600FA
:1015100002D050E00220F8BDA06A20F4885040F0CC
:101520000200A062022000F0B1FD25490968B1FB6C
:10153000F0F0400000E0401E00900028FBD1206841
:10154000816841F00801816000F00AFC074608E06C
:1015500000F006FCC01B0A2803D920688068000739
:1015600015D4206880680007F2D42068816841F0B3
:101570000401816000F0F4FB074612E000F0F0FB8C
:10158000C01B0A280DD920688068400709D5A06AC9
:1015900020F0020040F01000A06284F824500120E6
:1015A000F8BD206880684007E8D4A06A20F00200F7
:1015B00040F00100A06284F824503046F8BD0000DD
:1015C000B0000020F8B50024009490F824202546AF
:1015D000012A12D0012280F824204A681F23072AFA
:1015E0000DD20668776B521E02EB820293409F4336
:1015F0000B6893401F43776319E00220F8BD06682B
:101600000D2A0AD2376BD21F02EB820293409F430E
:101610000B6893401F43376309E0F76A0D3A02EB0A
:10162000820293409F430B6893401F43F7620A680E
:10163000072306680A2A0AD3F7680A3A02EB42022D
:1016400093409F438B6893401F43F76008E03769DE
:1016500002EB420293409F438B6893401F433761E4
:101660000A68102A01D0112A20D1124B02689A422E
:1016700017D193681B0219D4936843F40003936055
:101680000968102912D10C490C4A0968B1FBF2F122
:1016900001EB8101490000E0491E00910029FBD1C6
:1016A00004E0816A41F020018162012480F8245025
:1016B0002046F8BD00240140B000002040420F0049
:1016C0000068C06C704700002DE9F0414FF0000742
:1016D00004003D467ED0A06A002628B9E66284F860
:1016E0002460204600F07EF82046FFF77BFCA16ACC
:1016F000C90600D420B1A06A40F01000A06269E0E1
:10170000A16A21F4885141F00201A1626268E16995
:10171000237B0A4347EA43010A43A1684FF48077D9
:10172000B94209D0012907D05FF0000194F814C034
:10173000BCF1010F02D00AE03946F7E7F3B1A36A22
:1017400043F02003A362E36A43F00103E3622368EA
:10175000D3F804C02CF4694C4CEA010CC3F804C063
:1017600021688B68DFF870C003EA0C0313438B60B9
:10177000A168B9420BD0012909D00CE0DFF85CC0A8
:10178000A3690CEB43330B4343F40061DFE7218A89
:101790000D05A5F580152168CB6A23F470032B4352
:1017A000CB62216889680E4B1940914208D1E662EC
:1017B000A16A21F0020141F00101A162BDE8F081BE
:1017C000A06A20F0020040F01000A062E06A40F041
:1017D0000100E0620120F1E7FDF7E1FF00E0FFFF1B
:1017E000FE0E1FFF10B586B00021009101910291FD
:1017F00003911A4C03681A4903221A48A34211D1D3
:101800008B6943F400738B618B6903F40073049359
:101810008B6943F004038B61896901F00401049131
:10182000082113E0104CA34215D18B6943F4806367
:101830008B618B6903F4806304938B6943F0040329
:101840008B61896901F0040104910421CDE9001242
:10185000694600F08BF906B010BD0000002401407D
:101860000010024000080140002801402DE9F84323
:1018700000270D460446009700F072FA8046206863
:101880008168C90508D5A06A40F02000A06284F8EC
:1018900024700120BDE8F8834168C90503D4C06AFB
:1018A00010F4700F2AD0022000F0F0FB3B490968C9
:1018B000B1FBF0F62068036939490B424FEA610138
:1018C0004FEAA1121FD1C3684FEA611C13EA0C0F43
:1018D00019D103690B4225D1C068104222D11420CE
:1018E00023E0681C0AD02DB100F03AFAA0EB080002
:1018F000A84203D920680068800725D520680068C1
:101900008007EED52DE003690B4202D1C168114278
:1019100006D0026923490A4206D1C068084203D1B1
:10192000542002E0292000E0FC204643009816E005
:10193000681C11D02DB100F013FAA0EB0800A842EA
:101940000AD90098B04207D2A06A40F00400A06211
:1019500084F8247003209DE70098401C0090B0425A
:10196000E6D321686FF012000860A06A40F40070AE
:10197000A06220688068C0F3424007280CD1207B19
:1019800050B9A06A20F48070A062A06AC00403D499
:10199000A06A40F00100A06200207BE7B0000020B8
:1019A000244992244992240070B5044690F82400FA
:1019B00001280DD0012084F824002046FFF73EFBCB
:1019C00002004FF0000005D084F82400104670BDDE
:1019D000022070BDA16A40F20123994341F4807155
:1019E000A1621F4D23681F49AB4218D10E6816F43F
:1019F000702F14D0A66A46F48016A6620E6876058B
:101A000005D5A66A26F4005646F48056A662A66A54
:101A1000F6040AD5E66A26F00606E66206E0A66A3D
:101A200026F48016A6625E68E9E7E06284F8240086
:101A30006FF00200186020688368C3F34243072BED
:101A400005D1A84208D1096811F4702F04D081682B
:101A500041F480118160B9E7816841F4A001F9E7A0
:101A6000002801400424014010B590F82110002204
:101A7000022905D00421816380F82020012010BDB7
:101A800001680B6823F00E030B6001680B6823F0FC
:101A900001030B6090F84030C46B012101FA03F39D
:101AA000636080F8211080F82020104610BD0000EF
:101AB00010B590F821100024022903D0042181637D
:101AC00001243DE001680A6822F00E020A60016804
:101AD0000A6822F001020A601A4A0168914201D1A3
:101AE000012121E0174A1432914201D110211BE05B
:101AF000144A2832914201D1891515E0114A3C322D
:101B0000914201D189140FE00E4A5032914202D124
:101B10004FF4803108E00B4A6432914202D14FF415
:101B2000801101E04FF08071064A083A51600121AE
:101B300080F82110002180F82010416B01B1884706
:101B4000204610BD0800024070B5044600F008F9B8
:101B50000546601C02D004480078044400F000F9F7
:101B6000401BA042FAD370BDA40000202DE9F84F1D
:101B7000DFF8B8910024A9F1040B23460F2709F1DF
:101B8000040AABF1040EC9E00125A5402A40AA428F
:101B90007DD1674ED1F804C0ACEB0608B44532D015
:101BA00014DCBCF1030F3AD009DCBCF1000F2AD0E1
:101BB000BCF1010F1CD0BCF1020F31D11DE0BCF112
:101BC000110F17D0BCF1120F2AD119E0B8F5881FF8
:101BD00019D006DCB8F5803F15D0B8F5801F1FD1AD
:101BE00011E0B8F5001F0ED0B8F5041F18D10AE0B7
:101BF000CB6815E0CB681B1D12E0CB6808330FE003
:101C0000CB680C330CE08B682BB1012B4FF0080331
:101C100003D0456104E0042302E0056100E00023F5
:101C2000FF2A01D8064601E000F104064FEA8405C8
:101C300001D9A5F12005D6F8008007FA05FC28EAAD
:101C40000C0803FA05F548EA0508C6F800804D6857
:101C5000ED0062D5374DAE6946F00106AE61AD6963
:101C600024F0030605F001050095334D06EB050C45
:101C7000DCF80850A607360F07FA06F825EA08052B
:101C8000DFF8B880404503D14FF0000817E044E08A
:101C9000DFF8AC80404502D14FF001080FE0DFF8DB
:101CA000A480404502D14FF0020808E0DFF8988098
:101CB000404502D14FF0030801E04FF0040808FA54
:101CC00006F848EA0508CCF808804D68D9F80060A5
:101CD000ED024D4601D5164300E096432E604D6857
:101CE000DAF80060AD02554601D5164300E0964390
:101CF0002E604D68DBF80060AD035D4601D51643EC
:101D000000E096432E604D68DEF80060ED037546F6
:101D100001D5164300E096432E60641C0D682A46E8
:101D2000E5407FF431AFBDE8F88F000008040140C2
:101D300000001110001002400000014000080140A6
:101D4000000C014000100140001401408068084070
:101D500000D0012070470AB1016170470904FBE718
:101D60000148806870470000A400002070B504009E
:101D700025D094F83D00002520B984F83C50204639
:101D800000F0B8F8242084F83D002068016821F0B4
:101D9000010101602068016841F400410160206890
:101DA000016821F40041016000F0CEFA4D4A6168FB
:101DB000914201D84C4900E04C49884201D20120AF
:101DC00070BD4B492368B0FBF1F15E6826F03F0619
:101DD0000E435E606368934206D94FF4967359438D
:101DE0004FF47A73B1FBF3F12368491C1E6A26F0A5
:101DF0003F06314319626168914210D84900401E84
:101E0000B0FBF1F2521CC2F30B02042A01D20420EF
:101E100022E0B0FBF1F0401CC0F30B001CE0A26814
:101E2000F2B301EBC10303EB0116431EB3FBF6F360
:101E30005B1C43F480431B0549D092B301EBC10204
:101E400002EB0111401EB0FBF1F0401CC0F30B008F
:101E500040F4804040F400402168CA694CF6FF73AA
:101E60009A431043C861D4E907100143206802680F
:101E700022F0C00211430160D4E90301014320684C
:101E8000826848F2FF339A4311438160D4E9050127
:101E900008432168CA6822F0FF021043C86001E0CD
:101EA0000EE016E02068016841F001010160256440
:101EB000202084F83D00256384F83E50002070BD4A
:101EC00001EB4106431EB3FBF6F35B1CB3E70120B5
:101ED000C2E701EB4101401EB0FBF1F0401CC0F332
:101EE0000B00B7E7A086010080841E0000093D00BA
:101EF00040420F0010B586B000210091019102917F
:101F0000039100680F4988421AD10F4CA06940F034
:101F10000800A061A069694600F008000490C02094
:101F2000009012200190032003900848FFF71EFE46
:101F3000E06940F40010E061E06900F400100490F2
:101F400006B010BD0054004000100240000C0140DB
:101F5000024881680278114481607047A400002023
:101F6000074810B5016841F010010160032000F03E
:101F700075F80F2000F006F800F024F8002010BDDE
:101F80000020024070B50D4D04464FF47A71287858
:101F9000B1FBF0F00A490968B1FBF0F000F03BFC3E
:101FA00048B9102C07D200222146501E00F036F806
:101FB00000206C6070BD012070BD0000A4000020F6
:101FC000B00000200C4808B5816941F00101816131
:101FD000816901F001010091C16941F08051C16145
:101FE000C06900F0805000900448416821F0E06131
:101FF00041F00071416008BD001002400000014046
:10200000002809DB00F01F020121914040098000F7
:1020100000F1E020C0F8001170470000F0B40E4B52
:102020001B680C46C3F30223C3F10705042D00D936
:102030000425191D072901D2002300E0DB1E01261B
:1020400006FA05F1491E214099409E40761E164031
:102050003143F0BC02F077B90CED00E0064900F026
:10206000070208684FF6FF03184040EA0220034ABF
:1020700010430860704700000CED00E00000FA0516
:10208000014901200862704700000E4210B5014668
:102090000020234C012922D0022939D010291DD13A
:1020A00061682268D20119D51E48C1F38342C90371
:1020B000805C0AD561681B4AC1F34041921E515CA5
:1020C000194AB2FBF1F1484301E0184948436168FD
:1020D000490203D440000321B0FBF1F010BD226A95
:1020E000C2F30121012903D1920701D5C80310BD14
:1020F000022905D1626A920702D549F6404010BD17
:102100000329FCD121688903F9D54FF2244010BD81
:1021100000F02AF96168C1F38131491C4900DBE70D
:10212000001002401093000800127A0000093D00E0
:102130002DE9F84305460078354CC00754D0E069D6
:102140000026C00008D4E06940F08050E061E069FA
:10215000012600F0805000902E480168C90512D475
:102160000168804641F480710160FFF7F9FD074680
:1021700005E000BFFFF7F4FDC01B642823D8D8F8A2
:102180000000C005F6D5206A10F4407021D0A9885F
:1021900001F4407181421CD0206A1F49012220F4C1
:1021A00040700A6000220A602062C00711D0FFF769
:1021B000D7FD074641F2883808E000BFFFF7D0FDA1
:1021C000C11B414502D90320BDE8F883206A80077E
:1021D000F4D5206A696820F44070084320621EB17B
:1021E000E06920F08050E0612878800705D56068BC
:1021F000A96820F44040084360602878C00605D5EF
:102200006068E96820F48000084360600020DBE734
:102210000010024000700040400442422DE9F047A7
:102220000F46050061D0434E306800F00700B84209
:1022300009D2306820F0070038433060306800F081
:102240000700B84251D128683B4C810712D540079E
:1022500003D5606840F4E06060602878000703D52B
:10226000606840F4605060606068A96820F0F00029
:10227000084360602878C00728D06868012810D01B
:102280002168022810D0890700292EDA616821F020
:10229000030101436160FFF763FD804641F2883925
:1022A0000DE021688903EFE78901EDE7FFF758FDAD
:1022B000A0EB0801494502D90320BDE8F08760681A
:1022C000696800F00C00B0EB810FEFD1306800F0CE
:1022D0000700B8420BD9306820F00700384330605F
:1022E000306800F00700B84201D00120E5E7287807
:1022F000400705D56068E96820F4E0600843606045
:102300002878000706D56068296920F4605040EA03
:10231000C100606000F038F86168084AC1F3031139
:10232000515CC8400649086006480068FFF72AFE6D
:102330000020C2E700200240001002402093000865
:10234000B0000020A8000020044805490068496842
:10235000044AC1F30221515CC8407047B00000201C
:10236000001002403093000804480549006849689D
:10237000044AC1F3C221515CC8407047B00000203C
:1023800000100240309300080E4A51680E4801F0D8
:102390000C03042B11D0082B0FD10C48C1F383433D
:1023A000C903C05C0AD55168084AC1F34041921E76
:1023B000515C054A5043B0FBF1F070470449484373
:1023C000704700000010024000127A00FE920008E0
:1023D00000093D002DE9F84F040070D02078C04D71
:1023E000C00749D06868C0F38100012807D0686839
:1023F000C0F38100022809D16868C00306D52868A7
:10240000800339D560680028E7D035E06068B0F512
:10241000803F0BD010B1B0F5A02F11D0286820F468
:1024200080302860286820F4802002E0286840F48A
:1024300080302860606890B1FFF792FC06460AE0A1
:10244000286840F480202860F0E700BFFFF788FC90
:10245000801B642873D828688003F7D50CE0FFF749
:102460007FFC064605E000BFFFF77AFC801B64286E
:10247000F0D828688003F7D420789A4E80074FF070
:1024800001094FF0000839D5686810F00C0F07D02B
:102490006868C0F38100022809D16868C00306D4C7
:1024A0002868800714D52069012808D110E0206928
:1024B000B0B1C6F80090FFF753FC074605E00AE10B
:1024C000FFF74EFCC01B0228C4D828688007F7D548
:1024D0002868616920F0F80040EAC10028600DE03A
:1024E000C6F80080FFF73CFC074604E0FFF738FC25
:1024F000C01B022823D828688007F7D4207800075B
:102500002CD57948A169D9B1C0F80090FFF728FC13
:10251000074604E0FFF724FCC01B02280FD8686AB6
:102520008007F7D571484FF4FA510068B0FBF1F01D
:10253000009000BF0098411E0091FAD20EE080E0AA
:10254000C0F80080FFF70CFC074604E0FFF708FC2A
:10255000C01B022875D8686A8007F7D42078400726
:1025600060D5E8690027C00008D4E86940F08050D1
:10257000E861E869012700F0805000905C4801683C
:10258000C90513D40168834641F480710160FFF7E7
:10259000E7FB824606E000BFFFF7E2FBA0EB0A0084
:1025A00064284ED8DBF80000C005F5D5E0680128A6
:1025B0000AD008B1052813D0286A20F0010028624B
:1025C000286A20F0040002E0286A40F00100286236
:1025D000E06841F2883B98B1FFF7C2FB82460BE00E
:1025E000286A40F004002862EEE700BFFFF7B8FB5E
:1025F000A0EB0A0159455AD8286A8007F6D50CE0A5
:10260000FFF7AEFB824605E0FFF7AAFBA0EB0A014D
:1026100059454CD8286A8007F6D41FB1E86920F0E4
:102620008050E861E06988B36968C1F381010229DB
:1026300044D00228C6F8608004D0FFF791FB04461E
:1026400038E034E0FFF78CFB074604E0FFF788FB37
:10265000C01B02282BD828688001F7D4206AB0F567
:10266000803F05D16868A16820F4003008436860A5
:10267000D4E908010843696821F4741108436860CB
:10268000C6F86090FFF76CFB044606E025E000BF4B
:10269000FFF766FB001B022809D828688001F7D5E0
:1026A0001BE000BFFFF75CFB001B022802D90320E0
:1026B000BDE8F88F28688001F4D40EE00128F7D037
:1026C0006868226A00F48031914204D1616A00F4A2
:1026D0007010884201D00120EAE70020E8E70000FE
:1026E000001002400000424280044242B00000203C
:1026F00000700040024850F8210080B2704700008E
:10270000006C0040024800EB810091B2016070470C
:10271000006C004070B5040003D0607C002610B14E
:1027200005E0012070BD2674204600F03DF802202F
:102730006074204600F052F8042550BB204601F09A
:1027400052FA30BB2068416821F007014160A0685F
:1027500020B11448016821F0010101601148001FF7
:102760000168A26821F46071114301606068411C36
:1027700004D10120FFF78AFC58B1401E2268C0F343
:1027800003419160216880B2C860204601F046FA9A
:1027900008B16574C5E7E67301206073A0736074C7
:1027A000002070BD306C004008B5006808498842C0
:1027B0000DD1FFF765FC0748C16941F00061C161B7
:1027C000C069054900F0006000900120086008BD64
:1027D00000280040001002403C04424270B5040052
:1027E0000AD02068416821F008014160FFF7B8FA7B
:1027F00005464FF47A7608E0012070BDFFF7B0FA85
:10280000401BB04201D9032070BD2068406800071A
:10281000F4D5002070BD10B5401EB0F1807F01D30B
:10282000012010BD4FF0E02460610F21601701F01E
:102830008AFD0020A06107202061002010BD00005B
:1028400070B590F83C20012A26D0012480F83C4045
:10285000022280F83D2003685A689D6822F07006C5
:102860000A6832435A600D4B02689A4208D0B2F1AE
:10287000804F05D00A4B9A4202D00A4B9A4204D1AB
:10288000496825F080031943916080F83D4000219C
:1028900080F83C10084670BD022070BD002C01403D
:1028A000000400400008004010B5040003D094F874
:1028B0003D0010B107E0012010BD002084F83C006D
:1028C000204600F01FF8022084F83D00211D2068FA
:1028D00001F084FA012084F8460084F83E0084F870
:1028E0003F0084F8400084F8410084F8420084F8F6
:1028F000430084F8440084F8450084F83D0000203B
:1029000010BD000008B501681148B1F1804F0BD02F
:10291000104A914210D1C16941F00201C161C06900
:1029200000F00200009008BDC16941F00101C161E1
:10293000C06900F00100F5E7074A9142F3D1C1698F
:1029400041F00401C161C06900F00400EAE7000041
:1029500000100240000400400008004070B504462A
:1029600090F83C000025012817D0012684F83C602F
:10297000022084F83D002068826822F0770222F469
:102980007F4282600868502838D00DDC20284FD064
:1029900005DC90B3102811D14AE0022070BD302828
:1029A00046D040280AD13BE060282FD070280DD0B7
:1029B000B0F5805F03D0B0F5005F12D0012584F838
:1029C0003D60002084F83C00284670BDCB68D1E90A
:1029D0000121206801F04BFA2068816841F07701FD
:1029E00009E0CB68D1E90121206801F040FA2068B4
:1029F000816841F480418160E1E719E0CA68496873
:102A0000206801F0E9FA5021206806E0CA684968A8
:102A1000206801F0F2FA6021206801F032FACEE776
:102A2000CA684968206801F0D7FA40212068F4E7B5
:102A3000226801461046F0E730B585B000210091CC
:102A400001910291039100681A4A1B4902241B4D0F
:102A5000904219D1886940F004008861886900F0CB
:102A600004000490886940F008008861886969461C
:102A700000F0080004904020CDE9000410480394C1
:102A8000FFF774F803200BE00E4A90420FD18869DB
:102A900040F008008861886900F0080004909015F3
:102AA000CDE90004694628460394FFF75FF805B0B6
:102AB00030BD00000004004000100240000C014046
:102AC000000801400008004070B5044690F83C0042
:102AD00000260D4601280FD0012084F83C006AB181
:102AE000042A1DD0082A2FD00C2A3FD0012600200E
:102AF00084F83C00304670BD022070BD206801F0B3
:102B0000C9F92068816941F0080181612068816903
:102B100021F004018161206881692A69114311E073
:102B2000206801F0DFF92068816941F4006181616A
:102B30002068816921F480618161206881692A6946
:102B400041EA02218161D2E7206801F0F7F92068AB
:102B5000C16941F00801C1612068C16921F0040127
:102B6000C1612068C1692A69114311E0206801F040
:102B700011FA2068C16941F40061C1612068C1692E
:102B800021F48061C1612068C1692A6941EA02219A
:102B9000C161ACE710B5040003D094F83D0010B15A
:102BA00007E0012010BD002084F83C00204600F022
:102BB0001EF8022084F83D00211D206801F00EF966
:102BC000012084F8460084F83E0084F83F0084F831
:102BD000400084F8410084F8420084F8430084F8FF
:102BE000440084F8450084F83D00002010BD704783
:102BF00010B50446022249B104290ED0082913D089
:102C000094F84100012816D0012010BD94F83E0030
:102C10000128F9D184F83E200FE094F83F00012804
:102C2000F2D184F83F2008E094F840000128EBD16D
:102C300084F8402001E084F841200122206801F05E
:102C400009F90F492068884203D1426C42F40042DE
:102C500042642068884208D0B0F1804F05D009490D
:102C6000884202D00849884204D1816801F00701F6
:102C7000062903D0016841F001010160002010BD68
:102C8000002C0140000400400008004030B504461C
:102C90000D460068002201F0DDF8174B41F21111DA
:102CA00020688A10984209D1036A0B4206D1036A50
:102CB000134203D1436C23F4004343642068036A46
:102CC0000B4206D1016A114203D1016821F00101D2
:102CD000016001203DB1042D08D0082D09D084F8F1
:102CE0004100002030BD84F83E00FAE784F83F0040
:102CF000F7E784F84000F4E7002C01407047704784
:102D000010F8411F4078084370470000F8B501688B
:102D100004460868CA684B6910F00F0F4FF00005B1
:102D200059D003F0010602F49077374365D0C1070C
:102D300005D0D10503D5616C41F001016164410703
:102D400005D5D90703D0616C41F0020161648107A8
:102D500005D5D90703D0616C41F004016164010716
:102D600007D502F02001314303D0616C41F0080126
:102D70006164616C00293AD0800604D5900602D5C2
:102D8000204601F07BF920684069616CC0F3801037
:102D9000090700D460B3204601F049F92068406972
:102DA000400621D52068143050E8001F21F0400172
:102DB00040E80012002AF5D1E06BA8B16D494163EB
:102DC000E06BFEF775FE002811D0E06B416B01B09F
:102DD000BDE8F040084783060FD593060DD5204681
:102DE000BDE8F84001F04AB92046FFF788FFF8BD7A
:102DF0002046FFF784FF6564F8BD266B2023012E73
:102E00007CD1C6067AD5D60678D508684868009081
:102E100048694FF00206400640D5E16B08684068FB
:102E20000004000CE8D0A28D8242E5D9E0858869D3
:102E300020282DD020680C3050E8001F21F480712C
:102E400040E80012002AF5D12068143050E8001F35
:102E500021F0010140E80012002AF5D12068143069
:102E600050E8001F21F0400140E80012002AF5D18F
:102E700084F84230256320680C3050E8001F21F0B0
:102E8000100140E80012002AF5D1E06BFEF7ECFDDE
:102E90006663A08DE18D401A81B22AE0A08DE18D9C
:102EA000401A81B2E08D0028A6D00029A4D0226863
:102EB0000C3252E8000F20F4907042E80007002F17
:102EC000F5D12068143050E8002F22F0010240E8CC
:102ED0000027002FF5D184F84230256320680C309C
:102EE00050E8002F22F0100240E80023002BF5D11B
:102EF00066632046FFF702FFF8BDFFE705062BD506
:102F0000150629D594F841002128F5D1A068B0F51F
:102F1000805F01D12069B0B1206A411C2162216823
:102F200000784860E08C401E0004000CE084E3D18F
:102F30002068C16821F08001C1602068C16841F04B
:102F40004001C160D8E7206A0088C0F308004860EB
:102F5000206A801C2062E5E74006CDD55006CBD51F
:102F6000CA68204622F04002CA6084F8413000F06E
:102F700015F9C1E71F40000870B5040004D094F8AB
:102F80004100002510B106E0012070BD84F84050DA
:102F9000204600F023F8242084F841002068C1680E
:102FA00021F40051C160204601F0CAF8206801698F
:102FB00021F4904101612068416921F02A014161B9
:102FC0002068C16841F40051C1606564202084F824
:102FD000410084F842006563002070BD30B585B0C3
:102FE00000240094019402940394006818498842D4
:102FF0002CD11848816941F480418161816901F4D3
:1030000080410491816941F0040181618069124D20
:1030100000F0040004904FF4007000900220019032
:103020000320039069462846FEF7A0FD2815CDE948
:103030000004694628460294FEF798FD00221146D6
:103040002520FEF7EBFF2520FEF7DAFF05B030BDA7
:1030500000380140001002400008014090F8423062
:10306000202B01D00220704721B11AB10023036345
:1030700001F0C2B8012070472DE9F0411C4800263C
:103080000179FF2906D306714FF480711948FDF7C5
:103090001EFB25E0174CC37963544279F2B982795B
:1030A0008D1A655D3C2D19D1521CD2B282713E2B16
:1030B00001D00E2A12D30F4F00258A1A0F3F4B1C46
:1030C00006E000BF14F802C007F805C06D1CEDB2A1
:1030D000521C9A42F6DB012242718671491C017131
:1030E000BDE8F04102490122C91D0348FFF7B6BF00
:1030F0002400002067050020340800202DE9F84353
:10310000044690F84100984616460D46202802D005
:103110000220BDE8F88385B17EB1002060642120E3
:1031200084F84100FEF71CFEA6848146E684A06870
:103130002027B0F5805F02D003E00120E9E7206995
:1031400010B12E4600250EE000260CE0802120461E
:1031500001F06DF8A8B9C6B116F8010B21684860F6
:10316000E08C401EE084E08C4B464FF00002CDF82E
:1031700000800028EAD14FF04001204601F057F8C6
:1031800040B184F841700320C3E735F8020BC0F367
:103190000800E3E784F841700020BAE77047FEE7D3
:1031A00010B50E4C012280212046FEF7D4FD0122ED
:1031B00040212046FEF7CFFD00F046F80022802196
:1031C0002046FEF7C8FD00F03FF8002240212046CF
:1031D000FEF7C1FDBDE8104000F036B8000C01401C
:1031E00010B50A4C002280212046FEF7B4FD0122D2
:1031F00040212046FEF7AFFD00F026F820460122D0
:10320000BDE810408021FEF7A6BD0000000C014083
:1032100010B50C4C012280212046FEF79CFD00F0E9
:1032200013F8012240212046FEF795FD00F00CF82E
:10323000002240212046FEF78EFDBDE8104000F040
:1032400003B80000000C01400320401EC0B2FCD2B5
:10325000704700002DE9F04100240C4D28272B2158
:1032600004FB01F004EB4406803045F82600FCF72F
:103270009BFF90FBF7F107FB110005EB86010A307D
:10328000641C4860032CEADBBDE8F08134050020B3
:103290003EB5002411480094019402940E498460C4
:1032A000016004730475012505614FF460214460D9
:1032B000C161FEF709FA08B1FEF79AF80320CDE9DB
:1032C0000005694602940548FEF77CF9002801D004
:1032D000FEF78EF83EBD0000002401409406002059
:1032E0003EB5002411480094019402940E49846074
:1032F000016001250573047505614FF46021446088
:10330000C161FEF7E1F908B1FEF772F80220CDE9DC
:103310000005694602940548FEF754F9002801D0DB
:10332000FEF766F83EBD000000280140C4060020FC
:1033300070B586B00024244800940194029403944C
:10334000816941F010018161816901F010010491EE
:10335000816941F020018161816901F020010491BE
:10336000816941F004018161816901F004010491E6
:10337000816941F0080181618069144E00F0080004
:103380004FF4C0750490002229463046FEF7E3FC56
:103390000220CDE90240009501256946019530469D
:1033A000FEF7E4FB4FF468408DE8310069460848B9
:1033B000FEF7DCFB4FF418408DE8310069463046DB
:1033C000FEF7D4FB06B070BD0010024000080140BB
:1033D000000C01400D4810B50B4901600C494160DB
:1033E00000214FF480428160C0E903124161816194
:1033F000C1610162FEF7BAFC002803D0BDE81040AD
:10340000FDF7F6BF10BD000000540040F406002098
:10341000A08601000548044901604FF0FF3141607A
:103420004FF48071816070470028004048070020F9
:1034300010B586B0002416480094019402940394B9
:1034400004944FF080410594C0E900144FF6FF71D9
:10345000C0E9024104618461FFF726FA08B1FDF773
:10346000C7FF4FF48050009069460948FFF776FA8D
:1034700008B1FDF7BDFF049404A905480594FFF7C2
:10348000DFF9002801D0FDF7B3FF06B010BD000042
:103490005C07002010B58EB00024079408940994AE
:1034A0000A940B941C2168460C94FDF732F92648C7
:1034B000244901604721C0E901146321C0E90314D4
:1034C0008461FFF7F1F908B1FDF792FF4FF48050E6
:1034D000079007A91C48FFF741FA08B1FDF788FFDC
:1034E0001948FFF757FB08B1FDF782FF0B940BA9B2
:1034F00015480C94FFF7A4F908B1FDF779FF602097
:1035000000903220CDE90104002269460E4804945F
:10351000FFF7DAFA08B1FDF76BFF082269460A489F
:10352000FFF7D2FA08B1FDF763FF0C22694606489F
:10353000FFF7CAFA08B1FDF75BFF0348FFF77CFA13
:103540000EB010BD00040040A407002010B58EB0DE
:1035500000240794089409940A940B941C2168464B
:103560000C94FDF7D6F81E481C49C0E900144FF62C
:10357000FF71C0E9024104618461FFF795F908B168
:10358000FDF736FF4FF48050079007A91448FFF766
:10359000E5F908B1FDF72CFF1148FFF7FBFA08B178
:1035A000FDF726FF0B940BA90D480C94FFF748F983
:1035B00008B1FDF71DFF6020CDE900040294082248
:1035C000694607480494FFF77FFA08B1FDF710FF3A
:1035D0000348FFF731FA0EB010BD000000080040AC
:1035E000EC0700200C4810B50A4901604FF4E131A6
:1035F0004160002181600C22C160C0E90412816138
:10360000C161FFF7B9FC002803D0BDE81040FDF709
:10361000EFBE10BD00380140340800200A4808B54C
:10362000006881698AB2C1698BB2816989B28A42B4
:1036300003D0C06961F31F4001E043EA02400090FB
:103640006846FDF78DF808BD4807002010B58CB01E
:1036500001210E48FFF74EF842F23334A04212D057
:103660000A48FFF757F808B1FDF7C2FE2C220849B7
:103670006846FCF7FAFF684600F00CF82246012184
:103680000248FFF73FF80CB010BD000048070020CB
:10369000D092000810B5FDF788F80146BDE810404B
:1036A000014800F0D7BA000048070020FEE7FEE717
:1036B00030B40021084B0A465FF0000003EBC00461
:1036C000401CC0B262548028F8D3491CC9B20829F2
:1036D000F2D330BC00F070B9B40000202DE9F84FEF
:1036E00016460F4680460025144602FB06F951E0B7
:1036F00008EB0500A7EB040A00900AF0FF01C0B236
:10370000012200F09BF8A8EB050B0AF0FF010BF07B
:10371000FF00012200F092F807EB040A0AF0FF0113
:103720000BF0FF00012200F089F800980AF0FF0179
:10373000C0B2012200F082F87819C1B208EB040A85
:1037400000900AF0FF00012200F078F8A7EB050BCB
:103750000BF0FF010AF0FF00012200F06FF8A8EB68
:10376000040A0BF0FF010AF0FF00012200F066F8E6
:1037700000980122C1B20AF0FF0000F05FF86D1C52
:1037800005FB05F004FB040006FB1600002801DD24
:10379000641E6D1E600060434845A9DABDE8F88FDD
:1037A0002DE9FE4F151ACDE900104FF000085E1A02
:1037B00047464FF0FF30002D02DD4FF0010102E0DF
:1037C00003D14FF000018B4602E08346C5F10005AE
:1037D000002E02DD4FF0010002E003D14FF00000A7
:1037E000824602E08246C5F10006B54201DD2C4664
:1037F00000E03446601C4FF00009029019E0009888
:103800000C9AC1B20198C0B200F018F8A84437442D
:10381000A04504DD0198A8EB040858440190A74294
:1038200003DD00983F1B5044009009F101001FFA8E
:1038300080F902998945E2DBBDE8FE8F30B5CC08FE
:1038400001F0070301259D40EBB2064D05EBC005D5
:10385000C808285C0AB1184302E063EA0000C043CC
:10386000285530BDB40000204D4810B5816986B0A0
:1038700041F00801816180694A4C00F00800049021
:10388000C0200090012001900020029003200390AE
:1038900069462046FEF76AF9012240212046FEF7DC
:1038A0005AFA012280212046FEF755FA0022802193
:1038B0002046FEF750FAC820FEF746F90122802183
:1038C0002046FEF748FA0021AE2000F070F90021F2
:1038D000084600F06CF90021102000F068F9002182
:1038E000402000F064F90021812000F060F90021FF
:1038F000CF2000F05CF90021A12000F058F9002150
:10390000C82000F054F90021A62000F050F9002151
:10391000A82000F04CF900213F2000F048F90021D8
:10392000D32000F044F90021084600F040F90021BE
:10393000D52000F03CF90021802000F038F900216A
:10394000D92000F034F90021F12000F030F90021F5
:10395000DA2000F02CF90021122000F028F90021D3
:10396000DB2000F024F90021302000F020F90021B4
:10397000202000F01CF90021022000F018F900219D
:103980008D2000F014F90021142000F010F9FFF749
:103990008FFE0021AF2000F00AF906B010BD000034
:1039A00000100240000C01400246012000E050439C
:1039B000491EC9B2FBD2704770B5184E002400BF33
:1039C00004F1B000C0B2002100F0F1F80021084677
:1039D00000F0EDF80021102000F0E9F8FFF7E0FB1F
:1039E000782000F091F9FFF713FC402000F08CF9EB
:1039F000FFF70EFC5FF0000506EBC500005D00F070
:103A000083F9FFF705FC6D1CEDB2802DF4D3FFF7B1
:103A1000E7FB641CE4B2082CD2D370BDB4000020D4
:103A20002DE9FC4F1C460E4682468B460190082B22
:103A30000DD0600700D0012000EBD400610848439E
:103A4000C0B28146203AD0B2009000204BE0062060
:103A5000F7E7082C13D00C2C18D0102C1BD0182CE6
:103A600044D10098234900EBC00000BF01EB800166
:103A7000002711F80850E80712D00B9A13E00098BD
:103A80001D4900EB400001EB4001F1E700981B49A4
:103A900000EB4000EAE71A49009801EB0011E7E764
:103AA0000B9828B3002231465046FFF7C7FE761C1C
:103AB0007F1C6D08FFB2F6B2082FDCD30AF10100BB
:103AC00000F0FF0A082C0AD00199AAEB0100B0EB24
:103AD000540F04D10BF108008A4600F0FF0B08F1E7
:103AE00001005E46C0B280464845B2D3BDE8FC8FB7
:103AF0000122D8E74C810008C0740008E87600086D
:103B00005C7B00082DE9F84F0025DDE90A691F46B6
:103B100092468B468046082E00D1022500241CE0E8
:103B2000381B401EC1B20A20FFF73EFFBAFBF0F07F
:103B30000A21B0FBF1F201FB1200CDF8009080B138
:103B40003030C2B205EB560101FB0480C0B23346EF
:103B50005946FFF765FF641CE4B2BC42E0D3BDE800
:103B6000F88F05EB560101FB0480C0B233463022CA
:103B7000EEE72DE9F8411E46154688460446079FA4
:103B80000BE03346414620460097FFF749FF082ED9
:103B90000AD004EB5600C4B26D1C2A78A2F12000B2
:103BA0005E28EED9BDE8F881A41DE4B2F4E770B553
:103BB0000C460546FFF7F4FA782000F0A5F8FFF769
:103BC00027FB0CB1402000E0002000F09DF8FFF73B
:103BD0001FFB284600F098F8FFF71AFBBDE870407D
:103BE000FFF7FEBA704770B50446FEF7B9F8054610
:103BF0004FF47A7606E0FEF7B3F8401BB04201D9E5
:103C0000032070BD206840688006F4D520684168B4
:103C100041F010014160002070BD000070B5044605
:103C20000068416821F010014160FEF799F80546EF
:103C30004FF47A7607E000BFFEF792F8401BB042DF
:103C400001D9032070BD206840688006F4D50020AB
:103C500070BD00002DE9F0410F4604460025FEF737
:103C60007FF806464FF47A7805E000BFFEF778F853
:103C7000801B40451DD8206840688006F6D5206826
:103C8000416841F0100141602168380C8861216869
:103C9000B8B2C8612068416821F010014160FEF7A8
:103CA0005FF80646474606E0FEF75AF8801BB84222
:103CB00001D9012503E0206840688006F4D5284634
:103CC000BDE8F08110B504210548FEF713FD044658
:103CD00005210348FEF70EFD44EA004010BD000038
:103CE000480700207047000010B5044682B2042146
:103CF0000448FEF707FD220CBDE8104005210148ED
:103D0000FEF700BD4807002070B5104E05460024A0
:103D1000280601D5012200E0002280213046FEF76E
:103D20001AF8FFF791FA012240213046FEF713F806
:103D3000FFF78AFA002240213046FEF70CF86806A9
:103D4000641C050EE4B2082CE2D370BD000C0140E7
:103D5000FEF7FEB830B593B028216846FCF7D9FCD1
:103D600014210AA8FCF7D5FC002401210F9411941A
:103D7000052012940090CDE9024110944FF4803058
:103D8000019002250491CDE907504FF4E01009900D
:103D90006846FEF71FFB08B172B6FEE70F20CDE9BB
:103DA0000A054FF48060CDE90C4002210AA80E9468
:103DB000FEF734FA08B172B6FEE703200F904FF415
:103DC00080701090C00111900FA8FEF7B1F9002883
:103DD00001D072B6FEE713B030BD7047F0B502688F
:103DE000194B1A4C1A4D4FF08047984205D0B842F3
:103DF00003D0A04201D0A84203D122F070064A6845
:103E00003243984205D0B84203D0A04201D0A84224
:103E100003D122F44074CA6822434C6922F0800224
:103E2000224302608A68C2620A688262984201D1B3
:103E300009690163012141610169C90703D0016971
:103E400021F001010161F0BD002C0140000400409F
:103E50000008004010B501F01F030121046A9940D9
:103E60008C430462016A9A401143016210BD10B58F
:103E7000846842EA032224F47F440A432243826096
:103E800010BD826822F070020A4342F0070181608F
:103E90007047000030B5036A026A22F00102026234
:103EA0004268846924F073050C682C4323F00205F2
:103EB0008B682B430A4DA8420BD123F00805CB6831
:103EC00022F440722B434D6923F0040315438A69A1
:103ED0002A434260846149684163036230BD000047
:103EE000002C014030B5026A036A23F0100303621C
:103EF000436884690D6824F4E64444EA05248D6827
:103F000022F0200242EA05120B4DA8420ED1CD68E4
:103F100022F0800242EA05124D6923F4406343EA2D
:103F200085038D6922F0400243EA85034360846182
:103F300049688163026230BD002C014030B5036ADC
:103F4000026A22F4807202624268C46923F4007338
:103F500024F073050C682C438D6843EA05230C4D4F
:103F6000A8420ED1CD6823F4006343EA05234D69CE
:103F700022F4405242EA05128D6923F4806342EA3A
:103F800005124260C4614968C163036230BD00002C
:103F9000002C014030B5046A026A22F480520262A9
:103FA0004268C3690D6823F4E64343EA05238D683C
:103FB00024F4005444EA0534064DA84204D14D6966
:103FC00022F4804242EA85124260C361496801647A
:103FD000046230BD002C014010B5036A046A24F06D
:103FE00001040462846924F0F00444EA021423F01A
:103FF0000A020A438461026210BD10B5036A046AB2
:1040000024F010040462846923F0A00324F47044B3
:1040100044EA023243EA01118261016210BD10B527
:10402000406A0021C185C184FEF769FE10BD0168A8
:104030000C3151E8002F22F4907241E80023002B4C
:10404000F5D10168143151E8002F22F0010241E856
:104050000023002BF5D1016B012909D101680C3136
:1040600051E8002F22F0100241E80023002BF5D187
:10407000202180F8421000210163704708B590F8B4
:104080004210222901D0022008BD82684FF48053DB
:104090009A4201D1016921B1816A9A421BD04AB189
:1040A0000AE00268816A5268C2F308020A80816AE3
:1040B000891C08E0026972B10268526802F07F024E
:1040C0000A70816A491C8162C18D491E0904090C6C
:1040D000C18503D01BE002685268F1E70168CA6835
:1040E00022F02002CA600168CA6822F48072CA60A5
:1040F00001684A6922F001024A61202180F84210D9
:1041000000214163026B012A03D0FEF7B5FF0020B6
:1041100008BD016301680C3151E8002F22F0100244
:1041200041E80023002BF5D101680A68D20602D5C8
:104130000A6849680091818DFEF7E0FDE7E700001D
:1041400070B5044600680169E26821F440511143EA
:1041500001612169A0680843616908432168CA6850
:1041600041F20C639A430243CA6020684169A26924
:1041700021F44071114341611E492068884202D1F7
:10418000FEF7F2F801E0FEF7DFF800EBC00101EB0B
:104190000012606864218000B2FBF0F3B3FBF1F31E
:1041A0006FF018067343B2FBF0F5B2FBF0F605EBC7
:1041B0008305322303EB0515B5FBF1F5B6FBF1F6EC
:1041C00005F0F00505EB0615B2FBF0F6B2FBF0F0DA
:1041D000B0FBF1F06FF01802504306EB800003EBE8
:1041E0000010B0FBF1F0216800F00F002844886057
:1041F00070BD00000038014081628285C2850021C7
:104200004164222180F84210016921B10168CA6825
:1042100042F48072CA6001684A6942F001024A6150
:104220000068C16841F02001C160002070472DE99D
:10423000F843984617460D460446089E24E0701C35
:1042400022D0FDF78DFDA0EB0800B0421AD8CEB108
:104250002068C168490717D5802D15D0402D13D08F
:104260000168C94309070FD4016800254068009020
:104270002046FFF7DCFE0820606484F840500120EF
:10428000BDE8F8830320FBE72068006835EA0000FA
:1042900004D00020B842D2D00020F1E70120F9E795
:1042A0000148FEF733BD0000340800202DE9F0413D
:1042B000224D234C00276FF0040800BF07EB470690
:1042C000616955F82600401A45F8260040450FDA86
:1042D000802045F82600FBF767FF282190FBF1F2CC
:1042E00001FB120105EB86000A314160002181606B
:1042F00055F82600401D14280ADA05EB860081686F
:1043000031B96269E1681144491EE16001218160AF
:104310007F1C032FD2DBA0694FF4FA71401C90FB85
:10432000F1F2A06101FB1200002804D160690A28A3
:1043300001DA401C6061BDE8F08100003405002016
:1043400008000020FEE70907090E002804DB00F141
:10435000E02080F80014704700F00F0000F1E0202A
:1043600080F8141D704730380A2801D201207047A8
:104370000020704738B5FFF777FAFFF799F9082161
:104380001348FEF735FC124C00252068C5630C214C
:104390002046FEF72DFC206805640E48FDF704FB5F
:1043A000FFF754F90120009010230BA214210A20DA
:1043B000FFF7DFFBFFF700FB01220B490B48FEF77D
:1043C0004DFE00F0C7F8BDE83840FFF771B90000B6
:1043D000A4070020C4060020496E697469616C69F5
:1043E0007A696E67000000002B000020340800206E
:1043F00030B589B0FFF75CF9FFF710F90446C068E3
:104400000090D4E9043221A101A802F26C725B1C75
:10441000FBF704FF0125102301AA002114200095B9
:10442000FFF7A7FB20680090D4E901321BA101A887
:10443000FBF7F4FE182301AA142110200095FFF7C2
:1044400098FBA069194900EB800001EB400420466D
:10445000FCF7ECF84042802101EBC000C0F34700BC
:104460000823224632210095FFF783FBFFF7A4FAC9
:1044700069030F48FCF721FE08B101F0D9FF4FF4A2
:10448000FA70FDF761FB09B030BD000025642D25F1
:104490003032642D25303264000000002530326453
:1044A0003A253032643A253032640000540000204E
:1044B000000C014010B5012815D0022815D00328A2
:1044C00015D0042815D0052815D0062815D00728A2
:1044D00015D0082815D0092815D00A2815D1BDE80F
:1044E0001040FCF7A3BF00F063F900F083FB00F07D
:1044F0006FFC00F041FD00F037FE00F085FF01F099
:1045000043F801F0C7F902F019FB10BD70B514466D
:104510000D4602F0EBFABDB194B915E00A20FDF7A3
:1045200013FB29460948FCF76FF848B108490020F9
:1045300008704FF480710548FCF7C9F8012070BD80
:10454000641E2404240CE9D1002070BD67050020FE
:104550002800002010B5322216A117A0FFF7D6FFC1
:10456000142218A119A0FFF7D1FF4FF47A74204646
:10457000FDF7EAFA2046FDF7E7FA2046FDF7E4FAF0
:104580002046FDF7E1FAC8220AA112A0FFF7BEFFFC
:10459000142208A117A0FFF7B9FFC82205A118A08F
:1045A000FFF7B4FFBDE81040322202A119A0FFF7C7
:1045B000ADBF00004F4B000041542B43574D4F44BB
:1045C000453D3200726561647900000041542B5210
:1045D0005354000041542B43575341503D224F4FF9
:1045E0005053222C223132333435363738222C3195
:1045F0002C34000041542B4349504D55583D310057
:1046000041542B4349505345525645523D312C3865
:104610003038300041542B43495053454E4400003C
:10462000F0B58FB0FFF744F81F4C01251F4FEE0384
:104630001FA109A8E268FBF7F1FD082309AA2321BD
:1046400014200095FFF795FA10231CA20A211420CC
:104650000095FFF78EFAFFF7AFF9D4E9030188421E
:1046600002D92061FFF740FB17A101A82269FBF7DF
:10467000D5FD082301AA32210A200095FFF779FA17
:10468000FFF79AF931463846FCF717FD002809D1A3
:104690004FF400611148FCF710FD0028C8D002F06B
:1046A00017F9C5E70FB0F0BD080000200008014071
:1046B00053636F72653A202564000000596F7520BE
:1046C00077696E212121000048696768657374204D
:1046D00073636F72653A202564000000000C01408E
:1046E000144800240168CC6300680464124D4FF440
:1046F0000066124FFFF77CFE687998B16C7110A1CB
:104700001148FBF781FF68B10F482C714FF480719D
:104710000F30FBF7DCFF0C480F210F30FBF7D7FF02
:1047200002F00CFA31463846FCF7C7FC0028E1D00D
:1047300002F0CEF8A407002024000020000C014065
:104740003C776966693E00005805002008B5FDF712
:1047500007FC1648C16941F08051C161C16901F08F
:1047600080510091C16941F00061C161C06900F0F0
:1047700000600090FDF784FCFFF7ECFAFEF7D8FD2F
:10478000FEF728FEFEF72EFFFEF782FDFEF782FE03
:10479000FEF7A6FDFEF74CFEFEF7D8FEFEF73AFE4A
:1047A000FFF7E8FDFFF79CFFFCE700000010024068
:1047B00008B5FEF77DFF012414211023D6A2084678
:1047C0000094FFF7D6F9FFF7F7F84FF4FA6528469B
:1047D000FDF7BAF9FEF76CFF14211023D1A20846A9
:1047E0000094FFF7C6F9FFF7E7F82846FDF7ACF9A4
:1047F000FEF75EFF1023CFA214210A200094FFF7DA
:10480000B8F90C23CEA228210A200094FFF7B1F9B1
:10481000FFF7D2F8A146E703CE4EDFF83CA3CF4D19
:104820004FF0640B4FF40068002439463046FDF722
:104830008DFAE8B1DAF80000C463FEF739FF1023FF
:10484000BCA214210A20CDF80090FFF792F90C23A6
:10485000BBA2CDF8009028210A20FFF78AF9FFF7C4
:10486000ABF84146BE48FCF728FC002833D112E0E3
:10487000DAF80010C1F83CB0FEF71AFF1023B9A215
:1048800014210A20CDF80090FFF773F90C23B9A288
:10489000CDF80090DFE768790028C6D06C71BAA126
:1048A000BC48FBF7B1FE0028BFD0BA482C714FF4CA
:1048B00080710F30FBF70BFFB6480F210F30FBF76D
:1048C00006FF3222B4A1B5A0FFF720FE3222B2A12A
:1048D000B6A0FFF71BFEFEF7EBFE14211023B5A2D6
:1048E0000846CDF80090FFF744F9FFF765F84FF45C
:1048F000FA60FDF729F9FEF7DBFE1023B0A21421C0
:104900000A20CDF80090FFF734F90C2399A2282152
:104910000A20CDF80090FFF72CF9FFF74DF801229F
:1049200011468F48FDF717FA5646DFF828823946B8
:104930004046FDF70BFAF8B13168C1F83CB0FEF71C
:10494000B7FE10237BA214210A20CDF80090FFF7B8
:1049500010F90C2387A2CDF8009028210A20FFF738
:1049600008F9FFF729F84FF4006A51467C48FCF734
:10497000A4FB002831D110E03068C463FEF798FE34
:10498000102378A214210A20CDF80090FFF7F1F847
:104990000C236BA2CDF80090DFE768790028C4D023
:1049A0006C7179A17B48FBF72FFE0028BDD07948B8
:1049B0002C714FF480710F30FBF789FE75480F2181
:1049C0000F30FBF784FE322273A174A0FFF79EFD27
:1049D000322271A175A0FFF799FDFEF769FE4FF035
:1049E00001091421102373A20846CDF80090FFF7A7
:1049F000C0F8FEF7E1FF4FF4FA60FDF7A5F8306864
:104A0000C463FEF755FE10234AA214210A20CDF8F4
:104A10000090FFF7AEF80C2349A228210A20CDF818
:104A20000090FFF7A6F8FEF7C7FF4FF000093946E0
:104A30004046FDF78BF9002840D13220FDF784F87D
:104A400039464046FDF782F9002837D1B9F1000F09
:104A500017D081463068C463FEF72AFE012000901B
:104A6000102334A214210A20FFF783F801200C231D
:104A700033A2009028210A20FFF77BF8FEF79CFF65
:104A800016E031684FF00109C1F83CB0FEF710FEA6
:104A900001200090102327A214210A20FFF769F8B3
:104AA00001200C2333A20090E4E70A20FDF74CF824
:104AB00039464046FDF74AF90028F6D051462848C5
:104AC000FCF7FBFA18B13068C46301F001FF6879A4
:104AD0000028ACD06C713EA12E48FBF795FD002854
:104AE000A5D02C482C714FF480710F30FBF7EFFDEF
:104AF00028480F210F30FBF7EAFD322226A136A00D
:104B0000FFF704FD322224A137A0FFF7FFFC306835
:104B1000C46302F013F88AE74C6F6164696E672E14
:104B20002E2E0000427574746F6E206D6F646521C7
:104B3000000000005072657373204F4B20746F00AB
:104B40007475726E206F6E20746865206C6967687A
:104B50007400000000080140A40700202400002089
:104B6000000C014052656C65617365204F4B2074E9
:104B70006F0000007475726E206F66662074686541
:104B8000206C6967687400003C7377697463683EE1
:104B900000000000580500204F4B000041542B43FB
:104BA000495053454E443D302C3400004F4B210AB0
:104BB000000000005377696368696E672E2E2E002F
:104BC0005072657373206B657920746F000000006C
:104BD0003C657869743E000041542B43495053456D
:104BE0004E443D302C31310045786974696E672E32
:104BF0002E2E0A00002508B52C462F462E46FEF71D
:104C000057FD4FF001081421102354A20846CDF897
:104C10000080FEF7AEFFFEF7CFFE4FF4FA60FCF720
:104C200093FFFEF745FD142110234FA20846CDF84F
:104C30000080FEF79EFFDFF84091AA46D9F80020D9
:104C4000C2F83CA0D9F80010C1F840A0FEF7B4FEAD
:104C5000DFF828B1DFF82881FDF782F8D8F80820BE
:104C6000431B934206D3CFB15FF00007D9F8002071
:104C7000D7630546D8F80C10021B8A4206D37EB1D2
:104C80005FF00006D9F800100E6404464FF400519E
:104C90005846FCF712FA28B100F012FF6427E5E746
:104CA0006426EFE74FF400615846FCF706FA48B176
:104CB000D9F80020C2F83CA0D9F80000C0F840A004
:104CC00001F006FE98F805100029C5D088F805A067
:104CD0002CA12E48FBF798FCB8B12C4888F804A00A
:104CE0004FF480710F30FBF7F2FC28480F210F3092
:104CF000FBF7EDFC322226A126A0FFF707FC3222AB
:104D000023A128A0FFF702FCC6E728A11F48FBF754
:104D10007BFC0028A0D01D4888F804A04FF48071C7
:104D20000F30FBF7D4FC19480F210F30FBF7CFFCF5
:104D3000D9F80020C2F83CA0D9F80000C0F840A083
:104D4000322213A11BA0FFF7E1FB322210A11DA00C
:104D5000FFF7DCFB01F0F2FE7EE700004C6F6164C0
:104D6000696E672E2E2E0000506572696F64206D8B
:104D70006F64652100000000A4070020000C0140C2
:104D8000240000203C7365743E000000580500209C
:104D90004F4B000041542B43495053454E443D3046
:104DA0002C3400004F4B210A000000003C6578695C
:104DB000743E000041542B43495053454E443D300E
:104DC0002C31310045786974696E672E2E2E0A00E9
:104DD00008B5FEF76DFC01241421102348A20846F3
:104DE0000094FEF7C6FEFEF7E7FD4FF4FA60FCF70D
:104DF000ABFEFEF75DFC14210C2344A20846009490
:104E0000FEF7B7FEFEF7D8FD00214548FDF7F0FE9E
:104E10006703DFF81081424D434C4FF000094FF417
:104E2000807A0026286846632069FCF78DFE3946A3
:104E30004046FCF742F968B9761C642EF2DB632623
:104E4000286846632069FCF77FFE39464046FCF738
:104E500034F908B100F0D2FF761EF1D54FF40061AD
:104E60004046FCF72AF950B12968322048630021F6
:104E70002B48FDF70BFFFEF71BFC01F029FD6079C5
:104E80000028CED04E4684F8059028A12948FBF78B
:104E9000BBFBB0B1274884F8049051460F30FBF7B4
:104EA00016FC24480F210F30FBF711FC322222A1FF
:104EB00022A0FFF72BFB32221FA124A0FFF726FB25
:104EC000C8E724A11B48FBF79FFB0028A9D019487D
:104ED000267151460F30FBF7FAFB16480F210F30B1
:104EE000FBF7F5FB322214A11CA0FFF70FFB3222C7
:104EF00011A11EA0FFF70AFB01F020FE91E70000C0
:104F00004C6F6164696E672E2E2E000042726561DF
:104F10007468696E67206C6967687421000000001E
:104F2000A4070020000C0140240000203C7365749D
:104F30003E000000580500204F4B000041542B4319
:104F4000495053454E443D302C3400004F4B210A0C
:104F5000000000003C657869743E000041542B431A
:104F6000495053454E443D302C31310045786974E9
:104F7000696E672E2E2E0A0008B5FEF799FB0124F4
:104F8000142110235AA208460094FEF7F2FDFEF702
:104F900013FD4FF4FA60FCF7D7FDFEF789FB1421EF
:104FA0000C2356A208460094FEF7E3FDFEF704FD2D
:104FB00000215748FDF71CFE554E322031684863EA
:104FC000544F554C4FF4804A4FF4004B4FF05F085C
:104FD0004FF00509002551463846FCF781F850B1DD
:104FE0006069401D6061642802D34046C4F81480A3
:104FF00001463068416359463846FCF771F840B1C4
:105000006069401F606102D14846C4F8149031685D
:1050100048634FF400613846FCF74FF828B100218F
:105020003B48FDF733FE01F053FC60790028D2D0F5
:1050300065713AA13A48FBF7E7FA90B13848257113
:105040004FF480710F30FBF742FB35480F210F30D2
:10505000FBF73DFB6069401D6061642818D3404642
:1050600015E030A12E48FBF7CFFAF0B12C4825719E
:105070004FF480710F30FBF72AFB29480F210F30C6
:10508000FBF725FB6069401F606101D14846606104
:1050900031684863322224A124A0FFF737FA322274
:1050A00021A126A0FFF732FA95E726A11C48FBF7BD
:1050B000ABFA00288FD01A4825714FF480710F3059
:1050C000FBF705FB16480F210F30FBF700FB002113
:1050D0000F48FDF7DBFD322213A11CA0FFF716FAE3
:1050E000322211A11DA0FFF711FA01F027FD72E78E
:1050F0004C6F6164696E672E2E2E00004368616EEE
:105100006761626C65206C6967687421000000004B
:10511000A4070020000C0140240000203C2B3E008E
:10512000580500203C2D3E004F4B000041542B43BE
:10513000495053454E443D302C3400004F4B210A1A
:10514000000000003C657869743E000041542B4328
:10515000495053454E443D302C31310045786974F7
:10516000696E672E2E2E0A001CB5002201217E4892
:10517000FCF7F1FDFEF79CFA0124142110237BA219
:1051800008460094FEF7F5FCFEF716FC4FF4FA60B3
:10519000FCF7DAFCFEF78CFA0C2377A20A21142024
:1051A0000094FEF7E6FCFEF707FC7748FCF79EF953
:1051B000DFF8D8A1DFF8D8810C254FF0000972483C
:1051C000FCF7F2FB4FF0FF316F48FCF74FFB6E48E6
:1051D000FCF776FA83460C236EA21E21142000945D
:1051E000FEF7C7FCCDE9005404235A461E21502087
:1051F000FEF788FC0C236AA2322114200094FEF7EB
:10520000B8FC584602F07CF8684901F07BFF01F0D9
:105210004DFF4FF06632664B01F04AFE01F016FE7C
:105220000746644902F080F802F02EF84FF47A71D4
:1052300090FBF1F201FB1206384602F041F8CDE98D
:1052400000540246012332214B20FEF75BFC0C2365
:1052500059A2322150200094FEF78BFCCDE9005476
:105260000323324632215620FEF74CFCFEF7A4FB06
:10527000DAF8281056468B4504D9D8F80000642186
:10528000C16303E0D8F80010C1F83C904FF4FA7005
:10529000FCF75AFC344F4FF400613846FBF70DFF22
:1052A00040B1002201213846FCF755FDFEF700FA17
:1052B00001F00EFB4FF400513846FBF7FEFE20B123
:1052C000D8F80010C1F83C904CE0707900283FF409
:1052D00076AF4F4686F8059038A13A48FBF794F927
:1052E000E8B1384837714FF480710F30FBF7EFF9B0
:1052F00034480F210F30FBF7EAF9D8F80000C763F4
:10530000FEF7D6F9322230A130A0FFF7FFF83222A3
:105310002DA132A0FFF7FAF801F010FC4FE732A1FF
:105320002848FBF771F90028F8D026484C468AF83F
:1053300004904FF480710F30FBF7C9F921480F2119
:105340000F30FBF7C4F9D8F80000C463FEF7B0F9DA
:1053500032221DA126A0FFF7D9F832221AA128A0D7
:10536000FFF7D4F801F066F9000C01404C6F61645E
:10537000696E672E2E2E0000566F6C746167652073
:105380006C696768742100009406002024000020E6
:10539000A40700204144432056616C75653A000023
:1053A000566F6C746167653A0000000000F07F453D
:1053B00066660A4000007A442E0000003C65786969
:1053C000743E0000580500204F4B000041542B4311
:1053D000495053454E443D302C3131004578697475
:1053E000696E672E2E2E0A003C7365743E00000025
:1053F00041542B43495053454E443D302C3400001A
:105400004F4B210A00000000434E08B530680025CC
:10541000C563FEF74DF90124142110233FA208466D
:105420000094FEF7A6FBFEF7C7FA4FF4FA60FCF70C
:105430008BFBFEF73DF914210C233BA20846009498
:10544000FEF797FBFEF7B8FA4FF40058394F3A4C85
:105450004FF48079FBF796FF41463846FBF72DFE67
:1054600010B100BF00F022FA2078A169884203D968
:1054700031686420C86301E03068C5634FF400619F
:105480003846FBF71AFE28B1FEF712F93068C563FB
:1054900001F01EFA60790028DCD0657127A1294847
:1054A000FBF7B2F8A8B12748257149460F30FBF742
:1054B0000EF924480F210F30FBF709F9322222A1FF
:1054C00022A0FFF723F832221FA124A0FFF71EF825
:1054D000C8E724A11B48FBF797F80028BAD0194861
:1054E000257149460F30FBF7F2F816480F210F30AF
:1054F000FBF7EDF8FEF7DCF83068C563322212A145
:105500001AA0FFF703F832220FA11CA0FEF7FEFF3E
:1055100001F014FB9EE70000A40700204C6F6164BB
:10552000696E672E2E2E000054656D70206C6967C1
:1055300068742100000C0140240000203C73657455
:105540003E000000580500204F4B000041542B4303
:10555000495053454E443D302C3400004F4B210AF6
:10556000000000003C657869743E000041542B4304
:10557000495053454E443D302C31310045786974D3
:10558000696E672E2E2E0A001CB500214348FDF7D8
:105590002FFB424E322031684863FEF789F8012420
:1055A000142110233EA208460094FEF7E2FAFEF70B
:1055B00003FA4FF4FA60FCF7C7FAFEF779F8142102
:1055C0000C233AA208460094FEF7D3FA0C233BA220
:1055D000282114200094FEF7CCFAFEF7EDF93A4D9D
:1055E0004FF00C084FF0FF3B40F6FF794FF0000AF8
:1055F00059463648FCF73AF93448FCF761F8074653
:10560000CDE9008404233A4628215020FEF77AFA97
:10561000FEF7D2F964204743B7FBF9F031684863DD
:105620004FF4FA70FCF790FA4FF400612848FBF74A
:1056300044FD38B1FEF73CF800211848FDF726FB81
:1056400001F046F968790028D2D0574685F805A0C0
:1056500020A12248FAF7D8FF0028C9D01F482F718F
:105660004FF480710F30FBF732F81C480F210F30D8
:10567000FBF72DF8FEF71CF800210848FDF706FBA4
:10568000322217A117A0FEF741FF322214A119A060
:10569000FEF73CFF01F052FAAAE70000A407002041
:1056A0004C6F6164696E672E2E2E0000536F756E0D
:1056B00064206C6967687421000000004144432045
:1056C00056616C75653A000024000020C406002075
:1056D000000C01403C657869743E000058050020CC
:1056E0004F4B000041542B43495053454E443D30ED
:1056F0002C31310045786974696E672E2E2E0A00B0
:1057000008B5FDF7D5FF01241421102345A2084652
:105710000094FEF72EFAFEF74FF94FF4FA60FCF70B
:1057200013FAFDF7C5FF1421102341A20846009487
:10573000FEF71FFAFEF740F9404D414F414C4FF440
:10574000005800264FF480792968606A4863296808
:10575000206AC8632968E069086441463846FBF757
:10576000ACFC40B100213548FDF790FA2868C663CB
:105770002868066431E04FF400613846FBF79DFC71
:1057800028B100212D48FDF781FA01F0A1F86079D8
:105790000028D9D066712CA12D48FAF735FFF0B159
:1057A0002B48267149460F30FAF791FF28480F2100
:1057B0000F30FAF78CFF00212048FDF767FA2868C0
:1057C000C66328680664322222A123A0FEF79EFE4B
:1057D000322220A124A0FEF799FE00F023FC24A190
:1057E0001B48FAF711FF0028AED019482671494628
:1057F0000F30FAF76CFF16480F210F30FAF767FFEA
:1058000000210E48FDF742FA322212A11AA0FEF73B
:105810007DFE32220FA11CA0FEF778FE01F08EF96A
:1058200092E700004C6F6164696E672E2E2E0000B7
:10583000524742206D6F646521000000A4070020DC
:10584000000C0140240000203C7365743E00000001
:10585000580500204F4B000041542B4349505345FD
:105860004E443D302C3400004F4B210A0000000014
:105870003C657869743E000041542B4349505345C0
:105880004E443D302C31310045786974696E672E85
:105890002E2E0A0000210448FDF7AAF90249002033
:1058A00009684863FFF72CFFA40700201CB50125F9
:1058B000614E624C00274FF4807800BFFDF7F8FE80
:1058C00014210C235EA208460095FEF752F90C2322
:1058D0005EA21E2114200095FEF74BF90C235FA257
:1058E000282114200095FEF744F90C235EA22821FC
:1058F0005A200095FEF73DF9A069002302460A21CF
:1059000004E000BFB0FBF1F05B1CDBB20028F9D172
:1059100003B901230C20CDE9000528214620FEF71C
:10592000F1F8FEF749F84FF4FA70FCF70DF94FF46F
:1059300080413046FBF7D4FB10B1A069401CA06148
:105940004FF400413046FBF7CBFB10B1A069401E7D
:10595000A0614FF400513046FBF7AFFB08B1FFF7F1
:1059600053FD60790028A9D0009767713FA1404896
:10597000FAF74AFE68B13E48277141460F30FAF700
:10598000A6FE3B480F210F30FAF7A1FEA069401C8C
:1059900011E038A13648FAF737FE70B13448277164
:1059A00041460F30FAF793FE31480F210F30FAF7D6
:1059B0008EFEA069401EA06133E02FA12C48FAF7AB
:1059C00023FEB8B12A48277141460F30FAF77FFE0F
:1059D00027480F210F30FAF77AFE322228A129A09A
:1059E000FEF794FD322226A12AA0FEF78FFDFFF7D5
:1059F0000BFD63E76A462AA11D48FAF723FD01283B
:105A0000F7D1009881466328F3D819482771414699
:105A10000F30FAF75CFE0F211548FAF77AFEC4F84A
:105A20001890322216A120A0FEF770FD322214A198
:105A300021A0FEF76BFD41E7000C0140240000208F
:105A400053657474696E67207468650054656D7081
:105A5000206C696768742E2E2E00000043757272E8
:105A6000656E743A00000000430000003C2B3E00CD
:105A7000580500203C2D3E003C657869743E0000CE
:105A80004F4B000041542B43495053454E443D3049
:105A90002C31310045786974696E672E2E2E0A000C
:105AA0003C25643E0000000041542B4349505345BF
:105AB0004E443D302C3400004F4B210A00000000C2
:105AC0001CB5A6494FF0000901250A68C2F83C90B0
:105AD0000968C1F840904FF00A084FF00C0BA04C39
